{
  "contractName": "REALREALM",
  "abi": [
    {
      "inputs": [],
      "stateMutability": "nonpayable",
      "type": "constructor"
    },
    {
      "anonymous": false,
      "inputs": [
        {
          "indexed": true,
          "internalType": "address",
          "name": "owner",
          "type": "address"
        },
        {
          "indexed": true,
          "internalType": "address",
          "name": "spender",
          "type": "address"
        },
        {
          "indexed": false,
          "internalType": "uint256",
          "name": "value",
          "type": "uint256"
        }
      ],
      "name": "Approval",
      "type": "event"
    },
    {
      "anonymous": false,
      "inputs": [
        {
          "indexed": true,
          "internalType": "address",
          "name": "delegator",
          "type": "address"
        },
        {
          "indexed": true,
          "internalType": "address",
          "name": "fromDelegate",
          "type": "address"
        },
        {
          "indexed": true,
          "internalType": "address",
          "name": "toDelegate",
          "type": "address"
        }
      ],
      "name": "DelegateChanged",
      "type": "event"
    },
    {
      "anonymous": false,
      "inputs": [
        {
          "indexed": true,
          "internalType": "address",
          "name": "delegate",
          "type": "address"
        },
        {
          "indexed": false,
          "internalType": "uint256",
          "name": "previousBalance",
          "type": "uint256"
        },
        {
          "indexed": false,
          "internalType": "uint256",
          "name": "newBalance",
          "type": "uint256"
        }
      ],
      "name": "DelegateVotesChanged",
      "type": "event"
    },
    {
      "anonymous": false,
      "inputs": [
        {
          "indexed": true,
          "internalType": "address",
          "name": "previousOwner",
          "type": "address"
        },
        {
          "indexed": true,
          "internalType": "address",
          "name": "newOwner",
          "type": "address"
        }
      ],
      "name": "OwnershipTransferred",
      "type": "event"
    },
    {
      "anonymous": false,
      "inputs": [
        {
          "indexed": false,
          "internalType": "address",
          "name": "account",
          "type": "address"
        }
      ],
      "name": "Paused",
      "type": "event"
    },
    {
      "anonymous": false,
      "inputs": [
        {
          "indexed": false,
          "internalType": "uint256",
          "name": "id",
          "type": "uint256"
        }
      ],
      "name": "Snapshot",
      "type": "event"
    },
    {
      "anonymous": false,
      "inputs": [
        {
          "indexed": true,
          "internalType": "address",
          "name": "from",
          "type": "address"
        },
        {
          "indexed": true,
          "internalType": "address",
          "name": "to",
          "type": "address"
        },
        {
          "indexed": false,
          "internalType": "uint256",
          "name": "value",
          "type": "uint256"
        }
      ],
      "name": "Transfer",
      "type": "event"
    },
    {
      "anonymous": false,
      "inputs": [
        {
          "indexed": false,
          "internalType": "address",
          "name": "account",
          "type": "address"
        }
      ],
      "name": "Unpaused",
      "type": "event"
    },
    {
      "inputs": [],
      "name": "DOMAIN_SEPARATOR",
      "outputs": [
        {
          "internalType": "bytes32",
          "name": "",
          "type": "bytes32"
        }
      ],
      "stateMutability": "view",
      "type": "function",
      "constant": true
    },
    {
      "inputs": [
        {
          "internalType": "address",
          "name": "owner",
          "type": "address"
        },
        {
          "internalType": "address",
          "name": "spender",
          "type": "address"
        }
      ],
      "name": "allowance",
      "outputs": [
        {
          "internalType": "uint256",
          "name": "",
          "type": "uint256"
        }
      ],
      "stateMutability": "view",
      "type": "function",
      "constant": true
    },
    {
      "inputs": [
        {
          "internalType": "address",
          "name": "spender",
          "type": "address"
        },
        {
          "internalType": "uint256",
          "name": "amount",
          "type": "uint256"
        }
      ],
      "name": "approve",
      "outputs": [
        {
          "internalType": "bool",
          "name": "",
          "type": "bool"
        }
      ],
      "stateMutability": "nonpayable",
      "type": "function"
    },
    {
      "inputs": [
        {
          "internalType": "address",
          "name": "account",
          "type": "address"
        }
      ],
      "name": "balanceOf",
      "outputs": [
        {
          "internalType": "uint256",
          "name": "",
          "type": "uint256"
        }
      ],
      "stateMutability": "view",
      "type": "function",
      "constant": true
    },
    {
      "inputs": [
        {
          "internalType": "address",
          "name": "account",
          "type": "address"
        },
        {
          "internalType": "uint256",
          "name": "snapshotId",
          "type": "uint256"
        }
      ],
      "name": "balanceOfAt",
      "outputs": [
        {
          "internalType": "uint256",
          "name": "",
          "type": "uint256"
        }
      ],
      "stateMutability": "view",
      "type": "function",
      "constant": true
    },
    {
      "inputs": [
        {
          "internalType": "address",
          "name": "account",
          "type": "address"
        },
        {
          "internalType": "uint32",
          "name": "pos",
          "type": "uint32"
        }
      ],
      "name": "checkpoints",
      "outputs": [
        {
          "components": [
            {
              "internalType": "uint32",
              "name": "fromBlock",
              "type": "uint32"
            },
            {
              "internalType": "uint224",
              "name": "votes",
              "type": "uint224"
            }
          ],
          "internalType": "struct ERC20Votes.Checkpoint",
          "name": "",
          "type": "tuple"
        }
      ],
      "stateMutability": "view",
      "type": "function",
      "constant": true
    },
    {
      "inputs": [],
      "name": "decimals",
      "outputs": [
        {
          "internalType": "uint8",
          "name": "",
          "type": "uint8"
        }
      ],
      "stateMutability": "view",
      "type": "function",
      "constant": true
    },
    {
      "inputs": [
        {
          "internalType": "address",
          "name": "spender",
          "type": "address"
        },
        {
          "internalType": "uint256",
          "name": "subtractedValue",
          "type": "uint256"
        }
      ],
      "name": "decreaseAllowance",
      "outputs": [
        {
          "internalType": "bool",
          "name": "",
          "type": "bool"
        }
      ],
      "stateMutability": "nonpayable",
      "type": "function"
    },
    {
      "inputs": [
        {
          "internalType": "address",
          "name": "delegatee",
          "type": "address"
        }
      ],
      "name": "delegate",
      "outputs": [],
      "stateMutability": "nonpayable",
      "type": "function"
    },
    {
      "inputs": [
        {
          "internalType": "address",
          "name": "delegatee",
          "type": "address"
        },
        {
          "internalType": "uint256",
          "name": "nonce",
          "type": "uint256"
        },
        {
          "internalType": "uint256",
          "name": "expiry",
          "type": "uint256"
        },
        {
          "internalType": "uint8",
          "name": "v",
          "type": "uint8"
        },
        {
          "internalType": "bytes32",
          "name": "r",
          "type": "bytes32"
        },
        {
          "internalType": "bytes32",
          "name": "s",
          "type": "bytes32"
        }
      ],
      "name": "delegateBySig",
      "outputs": [],
      "stateMutability": "nonpayable",
      "type": "function"
    },
    {
      "inputs": [
        {
          "internalType": "address",
          "name": "account",
          "type": "address"
        }
      ],
      "name": "delegates",
      "outputs": [
        {
          "internalType": "address",
          "name": "",
          "type": "address"
        }
      ],
      "stateMutability": "view",
      "type": "function",
      "constant": true
    },
    {
      "inputs": [
        {
          "internalType": "uint256",
          "name": "blockNumber",
          "type": "uint256"
        }
      ],
      "name": "getPastTotalSupply",
      "outputs": [
        {
          "internalType": "uint256",
          "name": "",
          "type": "uint256"
        }
      ],
      "stateMutability": "view",
      "type": "function",
      "constant": true
    },
    {
      "inputs": [
        {
          "internalType": "address",
          "name": "account",
          "type": "address"
        },
        {
          "internalType": "uint256",
          "name": "blockNumber",
          "type": "uint256"
        }
      ],
      "name": "getPastVotes",
      "outputs": [
        {
          "internalType": "uint256",
          "name": "",
          "type": "uint256"
        }
      ],
      "stateMutability": "view",
      "type": "function",
      "constant": true
    },
    {
      "inputs": [
        {
          "internalType": "address",
          "name": "account",
          "type": "address"
        }
      ],
      "name": "getVotes",
      "outputs": [
        {
          "internalType": "uint256",
          "name": "",
          "type": "uint256"
        }
      ],
      "stateMutability": "view",
      "type": "function",
      "constant": true
    },
    {
      "inputs": [
        {
          "internalType": "address",
          "name": "spender",
          "type": "address"
        },
        {
          "internalType": "uint256",
          "name": "addedValue",
          "type": "uint256"
        }
      ],
      "name": "increaseAllowance",
      "outputs": [
        {
          "internalType": "bool",
          "name": "",
          "type": "bool"
        }
      ],
      "stateMutability": "nonpayable",
      "type": "function"
    },
    {
      "inputs": [],
      "name": "name",
      "outputs": [
        {
          "internalType": "string",
          "name": "",
          "type": "string"
        }
      ],
      "stateMutability": "view",
      "type": "function",
      "constant": true
    },
    {
      "inputs": [
        {
          "internalType": "address",
          "name": "owner",
          "type": "address"
        }
      ],
      "name": "nonces",
      "outputs": [
        {
          "internalType": "uint256",
          "name": "",
          "type": "uint256"
        }
      ],
      "stateMutability": "view",
      "type": "function",
      "constant": true
    },
    {
      "inputs": [
        {
          "internalType": "address",
          "name": "account",
          "type": "address"
        }
      ],
      "name": "numCheckpoints",
      "outputs": [
        {
          "internalType": "uint32",
          "name": "",
          "type": "uint32"
        }
      ],
      "stateMutability": "view",
      "type": "function",
      "constant": true
    },
    {
      "inputs": [],
      "name": "owner",
      "outputs": [
        {
          "internalType": "address",
          "name": "",
          "type": "address"
        }
      ],
      "stateMutability": "view",
      "type": "function",
      "constant": true
    },
    {
      "inputs": [],
      "name": "paused",
      "outputs": [
        {
          "internalType": "bool",
          "name": "",
          "type": "bool"
        }
      ],
      "stateMutability": "view",
      "type": "function",
      "constant": true
    },
    {
      "inputs": [
        {
          "internalType": "address",
          "name": "owner",
          "type": "address"
        },
        {
          "internalType": "address",
          "name": "spender",
          "type": "address"
        },
        {
          "internalType": "uint256",
          "name": "value",
          "type": "uint256"
        },
        {
          "internalType": "uint256",
          "name": "deadline",
          "type": "uint256"
        },
        {
          "internalType": "uint8",
          "name": "v",
          "type": "uint8"
        },
        {
          "internalType": "bytes32",
          "name": "r",
          "type": "bytes32"
        },
        {
          "internalType": "bytes32",
          "name": "s",
          "type": "bytes32"
        }
      ],
      "name": "permit",
      "outputs": [],
      "stateMutability": "nonpayable",
      "type": "function"
    },
    {
      "inputs": [],
      "name": "renounceOwnership",
      "outputs": [],
      "stateMutability": "nonpayable",
      "type": "function"
    },
    {
      "inputs": [],
      "name": "symbol",
      "outputs": [
        {
          "internalType": "string",
          "name": "",
          "type": "string"
        }
      ],
      "stateMutability": "view",
      "type": "function",
      "constant": true
    },
    {
      "inputs": [],
      "name": "totalSupply",
      "outputs": [
        {
          "internalType": "uint256",
          "name": "",
          "type": "uint256"
        }
      ],
      "stateMutability": "view",
      "type": "function",
      "constant": true
    },
    {
      "inputs": [
        {
          "internalType": "uint256",
          "name": "snapshotId",
          "type": "uint256"
        }
      ],
      "name": "totalSupplyAt",
      "outputs": [
        {
          "internalType": "uint256",
          "name": "",
          "type": "uint256"
        }
      ],
      "stateMutability": "view",
      "type": "function",
      "constant": true
    },
    {
      "inputs": [
        {
          "internalType": "address",
          "name": "recipient",
          "type": "address"
        },
        {
          "internalType": "uint256",
          "name": "amount",
          "type": "uint256"
        }
      ],
      "name": "transfer",
      "outputs": [
        {
          "internalType": "bool",
          "name": "",
          "type": "bool"
        }
      ],
      "stateMutability": "nonpayable",
      "type": "function"
    },
    {
      "inputs": [
        {
          "internalType": "address",
          "name": "sender",
          "type": "address"
        },
        {
          "internalType": "address",
          "name": "recipient",
          "type": "address"
        },
        {
          "internalType": "uint256",
          "name": "amount",
          "type": "uint256"
        }
      ],
      "name": "transferFrom",
      "outputs": [
        {
          "internalType": "bool",
          "name": "",
          "type": "bool"
        }
      ],
      "stateMutability": "nonpayable",
      "type": "function"
    },
    {
      "inputs": [
        {
          "internalType": "address",
          "name": "newOwner",
          "type": "address"
        }
      ],
      "name": "transferOwnership",
      "outputs": [],
      "stateMutability": "nonpayable",
      "type": "function"
    },
    {
      "inputs": [],
      "name": "snapshot",
      "outputs": [],
      "stateMutability": "nonpayable",
      "type": "function"
    },
    {
      "inputs": [],
      "name": "pause",
      "outputs": [],
      "stateMutability": "nonpayable",
      "type": "function"
    },
    {
      "inputs": [],
      "name": "unpause",
      "outputs": [],
      "stateMutability": "nonpayable",
      "type": "function"
    }
  ],
  "bytecode": "0x6101406040527f6e71edae12b1b97f4d1f60370fef10105fa2faae0126114a169c64845d6126c9610120523480156200003757600080fd5b50604051806040016040528060098152602001685245414c5245414c4d60b81b81525080604051806040016040528060018152602001603160f81b815250604051806040016040528060098152602001685245414c5245414c4d60b81b815250604051806040016040528060048152602001631491505360e21b8152508160039080519060200190620000cc92919062000c39565b508051620000e290600490602084019062000c39565b505050620000ff620000f96200035960201b60201c565b6200035d565b6009805460ff60a01b19169055815160208084019190912082519183019190912060c082905260e08190524660a0527f8b73c3c69bb8fe3d512ecc4cf759cc79239f7b179b0ffacaa9a75d522b39400f6200015c818484620003af565b6080526101005250620001b0935073ffc8562d79073bb64f8ad9e626bff5b97884b41e92506200018d915050601290565b6200019a90600a62000d47565b620001aa906301c9c38062000e32565b620003f9565b620001e7733e9bc83779b0c8eb9b0bce9cf980ce4630fcbb94620001d76012600a62000d47565b620001aa906307270e0062000e32565b6200021d73508bf5ca461b1b7e3c55ff64d4d396eaeca0489d6200020e6012600a62000d47565b620001aa9062b71b0062000e32565b620002547347da2d7674fdfa8e16ef0ee306c337f0f4548806620002446012600a62000d47565b620001aa90630ee6b28062000e32565b6200028d732d082504df6d138bdc669cc7914d0b16df863dd960125b6200027d90600a62000d47565b620001aa9063058b114062000e32565b620002ae7376b7d23274b73801327f22c2d2ba79e316500750601262000270565b620002e5735a4010d01377a515f64633403f9cdaef91f8a631620002d56012600a62000d47565b620001aa906305f5e10062000e32565b6200031c730d1ba337c0f17322155eddbc1c2f246d61698d406200030c6012600a62000d47565b620001aa906308f0d18062000e32565b6200035373ffead3439759fcc40738d21ae581a811a977a709620003436012600a62000d47565b620001aa906302faf08062000e32565b62000ec1565b3390565b600980546001600160a01b038381166001600160a01b0319831681179093556040519116919082907f8be0079c531659141344cd1fd0a4f28419497f9722a3daafe3b4186f6b6457e090600090a35050565b6040805160208101859052908101839052606081018290524660808201523060a082015260009060c0016040516020818303038152906040528051906020012090505b9392505050565b6200041082826200041460201b62000de41760201c565b5050565b6200042b8282620004cb60201b62000e741760201c565b6001600160e01b036200043f620005c88216565b1115620004ac5760405162461bcd60e51b815260206004820152603060248201527f4552433230566f7465733a20746f74616c20737570706c79207269736b73206f60448201526f766572666c6f77696e6720766f74657360801b60648201526084015b60405180910390fd5b620004c5600d62000f6b620005ce60201b1783620005dc565b50505050565b6001600160a01b038216620005235760405162461bcd60e51b815260206004820152601f60248201527f45524332303a206d696e7420746f20746865207a65726f2061646472657373006044820152606401620004a3565b6200053160008383620007c0565b806002600082825462000545919062000cdf565b90915550506001600160a01b038216600090815260208190526040812080548392906200057490849062000cdf565b90915550506040518181526001600160a01b038316906000907fddf252ad1be2c89b69c2b068fc378daa952ba7f163c4a11628f55a4df523b3ef9060200160405180910390a3620004106000838362000833565b60025490565b6000620003f2828462000cdf565b8254600090819080156200063a5785620005f860018362000e54565b815481106200061757634e487b7160e01b600052603260045260246000fd5b60009182526020909120015464010000000090046001600160e01b03166200063d565b60005b6001600160e01b031692506200065483858760201c565b9150600081118015620006a4575043866200067160018462000e54565b815481106200069057634e487b7160e01b600052603260045260246000fd5b60009182526020909120015463ffffffff16145b156200072457620006c0826200084b60201b62000f771760201c565b86620006ce60018462000e54565b81548110620006ed57634e487b7160e01b600052603260045260246000fd5b9060005260206000200160000160046101000a8154816001600160e01b0302191690836001600160e01b03160217905550620007b7565b8560405180604001604052806200074643620008be60201b62000fe41760201c565b63ffffffff16815260200162000767856200084b60201b62000f771760201c565b6001600160e01b039081169091528254600181018455600093845260209384902083519101805493909401519091166401000000000263ffffffff91821663ffffffff1990931692909217161790555b50935093915050565b620007d4600954600160a01b900460ff1690565b15620008165760405162461bcd60e51b815260206004820152601060248201526f14185d5cd8589b194e881c185d5cd95960821b6044820152606401620004a3565b6200082e8383836200092560201b620010491760201c565b505050565b6200082e8383836200099760201b6200109b1760201c565b60006001600160e01b03821115620008b65760405162461bcd60e51b815260206004820152602760248201527f53616665436173743a2076616c756520646f65736e27742066697420696e20326044820152663234206269747360c81b6064820152608401620004a3565b50805b919050565b600063ffffffff821115620008b65760405162461bcd60e51b815260206004820152602660248201527f53616665436173743a2076616c756520646f65736e27742066697420696e203360448201526532206269747360d01b6064820152608401620004a3565b6200093d8383836200082e60201b620010961760201c565b6001600160a01b03831662000967576200095782620009e3565b6200096162000a16565b6200082e565b6001600160a01b03821662000981576200095783620009e3565b6200098c83620009e3565b6200082e82620009e3565b620009af8383836200082e60201b620010961760201c565b6001600160a01b038381166000908152600b60205260408082205485841683529120546200082e9291821691168362000a28565b6001600160a01b0381166000908152600560209081526040808320918390529091205462000a1391905b62000b63565b50565b62000a26600662000a0d60025490565b565b816001600160a01b0316836001600160a01b03161415801562000a4b5750600081115b156200082e576001600160a01b0383161562000ad8576001600160a01b0383166000908152600c602090815260408220829162000a95919062000bb2901b620010b61785620005dc565b91509150846001600160a01b031660008051602062003429833981519152838360405162000acd929190918252602082015260400190565b60405180910390a250505b6001600160a01b038216156200082e576001600160a01b0382166000908152600c602090815260408220829162000b1c9190620005ce901b62000f6b1785620005dc565b91509150836001600160a01b031660008051602062003429833981519152838360405162000b54929190918252602082015260400190565b60405180910390a25050505050565b600062000b6f62000bc0565b90508062000b7d8462000bde565b10156200082e578254600180820185556000858152602080822090930193909355938401805494850181558252902090910155565b6000620003f2828462000e54565b600062000bd9600862000c3560201b620010c21760201c565b905090565b805460009062000bf157506000620008b9565b8154829062000c039060019062000e54565b8154811062000c2257634e487b7160e01b600052603260045260246000fd5b90600052602060002001549050620008b9565b5490565b82805462000c479062000e6e565b90600052602060002090601f01602090048101928262000c6b576000855562000cb6565b82601f1062000c8657805160ff191683800117855562000cb6565b8280016001018555821562000cb6579182015b8281111562000cb657825182559160200191906001019062000c99565b5062000cc492915062000cc8565b5090565b5b8082111562000cc4576000815560010162000cc9565b6000821982111562000cf55762000cf562000eab565b500190565b80825b600180861162000d0e575062000d3e565b81870482111562000d235762000d2362000eab565b8086161562000d3157918102915b9490941c93800262000cfd565b94509492505050565b6000620003f260001960ff85168460008262000d6657506001620003f2565b8162000d7557506000620003f2565b816001811462000d8e576002811462000d995762000dcd565b6001915050620003f2565b60ff84111562000dad5762000dad62000eab565b6001841b91508482111562000dc65762000dc662000eab565b50620003f2565b5060208310610133831016604e8410600b841016171562000e05575081810a8381111562000dff5762000dff62000eab565b620003f2565b62000e14848484600162000cfa565b80860482111562000e295762000e2962000eab565b02949350505050565b600081600019048311821515161562000e4f5762000e4f62000eab565b500290565b60008282101562000e695762000e6962000eab565b500390565b60028104600182168062000e8357607f821691505b6020821081141562000ea557634e487b7160e01b600052602260045260246000fd5b50919050565b634e487b7160e01b600052601160045260246000fd5b60805160a05160c05160e051610100516101205161251862000f116000396000610baa01526000611421015260006114700152600061144b015260006113cd015260006113f601526125186000f3fe608060405234801561001057600080fd5b50600436106101e55760003560e01c8063715018a61161010f5780639ab24eb0116100a2578063d505accf11610071578063d505accf14610402578063dd62ed3e14610415578063f1127ed81461044e578063f2fde38b1461048b576101e5565b80639ab24eb0146103b6578063a457c2d7146103c9578063a9059cbb146103dc578063c3cda520146103ef576101e5565b80638e539e8c116100de5780638e539e8c1461038057806395d89b41146103935780639711715a1461039b578063981b24d0146103a3576101e5565b8063715018a61461034c5780637ecebe00146103545780638456cb59146103675780638da5cb5b1461036f576101e5565b80633a46b1a8116101875780635c19a95c116101565780635c19a95c146102d55780635c975abb146102e85780636fcfff45146102fb57806370a0823114610323576101e5565b80633a46b1a81461027a5780633f4ba83a1461028d5780634ee2cd7e14610297578063587cde1e146102aa576101e5565b806323b872dd116101c357806323b872dd1461023d578063313ce567146102505780633644e5151461025f5780633950935114610267576101e5565b806306fdde03146101ea578063095ea7b31461020857806318160ddd1461022b575b600080fd5b6101f261049e565b6040516101ff91906123c0565b60405180910390f35b61021b6102163660046122ea565b610531565b60405190151581526020016101ff565b6002545b6040519081526020016101ff565b61021b61024b366004612246565b610548565b604051601281526020016101ff565b61022f6105f7565b61021b6102753660046122ea565b610606565b61022f6102883660046122ea565b610642565b6102956106bc565b005b61022f6102a53660046122ea565b6106f0565b6102bd6102b83660046121fa565b610749565b6040516001600160a01b0390911681526020016101ff565b6102956102e33660046121fa565b61076a565b61021b600954600160a01b900460ff1690565b61030e6103093660046121fa565b610777565b60405163ffffffff90911681526020016101ff565b61022f6103313660046121fa565b6001600160a01b031660009081526020819052604090205490565b610295610799565b61022f6103623660046121fa565b6107cd565b6102956107eb565b6009546001600160a01b03166102bd565b61022f61038e3660046123a8565b61081d565b6101f2610879565b610295610888565b61022f6103b13660046123a8565b6108ba565b61022f6103c43660046121fa565b6108e5565b61021b6103d73660046122ea565b61097a565b61021b6103ea3660046122ea565b610a13565b6102956103fd366004612313565b610a20565b610295610410366004612281565b610b56565b61022f610423366004612214565b6001600160a01b03918216600090815260016020908152604080832093909416825291909152205490565b61046161045c36600461236a565b610cba565b60408051825163ffffffff1681526020928301516001600160e01b031692810192909252016101ff565b6102956104993660046121fa565b610d4c565b6060600380546104ad90612497565b80601f01602080910402602001604051908101604052809291908181526020018280546104d990612497565b80156105265780601f106104fb57610100808354040283529160200191610526565b820191906000526020600020905b81548152906001019060200180831161050957829003601f168201915b505050505090505b90565b600061053e3384846110c6565b5060015b92915050565b60006105558484846111ea565b6001600160a01b0384166000908152600160209081526040808320338452909152902054828110156105df5760405162461bcd60e51b815260206004820152602860248201527f45524332303a207472616e7366657220616d6f756e74206578636565647320616044820152676c6c6f77616e636560c01b60648201526084015b60405180910390fd5b6105ec85338584036110c6565b506001949350505050565b60006106016113c9565b905090565b3360008181526001602090815260408083206001600160a01b0387168452909152812054909161053e91859061063d908690612448565b6110c6565b60004382106106935760405162461bcd60e51b815260206004820152601f60248201527f4552433230566f7465733a20626c6f636b206e6f7420796574206d696e65640060448201526064016105d6565b6001600160a01b0383166000908152600c602052604090206106b590836114c0565b9392505050565b6009546001600160a01b031633146106e65760405162461bcd60e51b81526004016105d690612413565b6106ee611599565b565b6001600160a01b03821660009081526005602052604081208190819061071790859061163c565b915091508161073e576001600160a01b038516600090815260208190526040902054610740565b805b95945050505050565b6001600160a01b038082166000908152600b6020526040902054165b919050565b6107743382611741565b50565b6001600160a01b0381166000908152600c602052604081205461054290610fe4565b6009546001600160a01b031633146107c35760405162461bcd60e51b81526004016105d690612413565b6106ee60006117d7565b6001600160a01b0381166000908152600a6020526040812054610542565b6009546001600160a01b031633146108155760405162461bcd60e51b81526004016105d690612413565b6106ee611829565b600043821061086e5760405162461bcd60e51b815260206004820152601f60248201527f4552433230566f7465733a20626c6f636b206e6f7420796574206d696e65640060448201526064016105d6565b610542600d836114c0565b6060600480546104ad90612497565b6009546001600160a01b031633146108b25760405162461bcd60e51b81526004016105d690612413565b6107746118b7565b60008060006108ca84600661163c565b91509150816108db576002546108dd565b805b949350505050565b6001600160a01b0381166000908152600c60205260408120548015610967576001600160a01b0383166000908152600c60205260409020610927600183612480565b8154811061094557634e487b7160e01b600052603260045260246000fd5b60009182526020909120015464010000000090046001600160e01b031661096a565b60005b6001600160e01b03169392505050565b3360009081526001602090815260408083206001600160a01b0386168452909152812054828110156109fc5760405162461bcd60e51b815260206004820152602560248201527f45524332303a2064656372656173656420616c6c6f77616e63652062656c6f77604482015264207a65726f60d81b60648201526084016105d6565b610a0933858584036110c6565b5060019392505050565b600061053e3384846111ea565b83421115610a705760405162461bcd60e51b815260206004820152601d60248201527f4552433230566f7465733a207369676e6174757265206578706972656400000060448201526064016105d6565b604080517fe48329057bfd03d55e49b547132e39cffd9c1820ad7b9d4c5307691425d15adf60208201526001600160a01b038816918101919091526060810186905260808101859052600090610aea90610ae29060a00160405160208183030381529060405280519060200120611911565b85858561195f565b9050610af581611987565b8614610b435760405162461bcd60e51b815260206004820152601960248201527f4552433230566f7465733a20696e76616c6964206e6f6e63650000000000000060448201526064016105d6565b610b4d8188611741565b50505050505050565b83421115610ba65760405162461bcd60e51b815260206004820152601d60248201527f45524332305065726d69743a206578706972656420646561646c696e6500000060448201526064016105d6565b60007f0000000000000000000000000000000000000000000000000000000000000000888888610bd58c611987565b6040805160208101969096526001600160a01b0394851690860152929091166060840152608083015260a082015260c0810186905260e0016040516020818303038152906040528051906020012090506000610c3082611911565b90506000610c408287878761195f565b9050896001600160a01b0316816001600160a01b031614610ca35760405162461bcd60e51b815260206004820152601e60248201527f45524332305065726d69743a20696e76616c6964207369676e6174757265000060448201526064016105d6565b610cae8a8a8a6110c6565b50505050505050505050565b60408051808201909152600080825260208201526001600160a01b0383166000908152600c60205260409020805463ffffffff8416908110610d0c57634e487b7160e01b600052603260045260246000fd5b60009182526020918290206040805180820190915291015463ffffffff8116825264010000000090046001600160e01b0316918101919091529392505050565b6009546001600160a01b03163314610d765760405162461bcd60e51b81526004016105d690612413565b6001600160a01b038116610ddb5760405162461bcd60e51b815260206004820152602660248201527f4f776e61626c653a206e6577206f776e657220697320746865207a65726f206160448201526564647265737360d01b60648201526084016105d6565b610774816117d7565b610dee8282610e74565b6002546001600160e01b031015610e605760405162461bcd60e51b815260206004820152603060248201527f4552433230566f7465733a20746f74616c20737570706c79207269736b73206f60448201526f766572666c6f77696e6720766f74657360801b60648201526084016105d6565b610e6e600d610f6b836119af565b50505050565b6001600160a01b038216610eca5760405162461bcd60e51b815260206004820152601f60248201527f45524332303a206d696e7420746f20746865207a65726f20616464726573730060448201526064016105d6565b610ed660008383611b60565b8060026000828254610ee89190612448565b90915550506001600160a01b03821660009081526020819052604081208054839290610f15908490612448565b90915550506040518181526001600160a01b038316906000907fddf252ad1be2c89b69c2b068fc378daa952ba7f163c4a11628f55a4df523b3ef9060200160405180910390a3610f6760008383611bbe565b5050565b60006106b58284612448565b60006001600160e01b03821115610fe05760405162461bcd60e51b815260206004820152602760248201527f53616665436173743a2076616c756520646f65736e27742066697420696e20326044820152663234206269747360c81b60648201526084016105d6565b5090565b600063ffffffff821115610fe05760405162461bcd60e51b815260206004820152602660248201527f53616665436173743a2076616c756520646f65736e27742066697420696e203360448201526532206269747360d01b60648201526084016105d6565b6001600160a01b03831661106d5761106082611bc9565b611068611bf7565b611096565b6001600160a01b0382166110845761106083611bc9565b61108d83611bc9565b61109682611bc9565b505050565b6110966110a784610749565b6110b084610749565b83611c05565b60006106b58284612480565b5490565b6001600160a01b0383166111285760405162461bcd60e51b8152602060048201526024808201527f45524332303a20617070726f76652066726f6d20746865207a65726f206164646044820152637265737360e01b60648201526084016105d6565b6001600160a01b0382166111895760405162461bcd60e51b815260206004820152602260248201527f45524332303a20617070726f766520746f20746865207a65726f206164647265604482015261737360f01b60648201526084016105d6565b6001600160a01b0383811660008181526001602090815260408083209487168084529482529182902085905590518481527f8c5be1e5ebec7d5bd14f71427d1e84f3dd0314c0f7b2291e5b200ac8c7c3b925910160405180910390a3505050565b6001600160a01b03831661124e5760405162461bcd60e51b815260206004820152602560248201527f45524332303a207472616e736665722066726f6d20746865207a65726f206164604482015264647265737360d81b60648201526084016105d6565b6001600160a01b0382166112b05760405162461bcd60e51b815260206004820152602360248201527f45524332303a207472616e7366657220746f20746865207a65726f206164647260448201526265737360e81b60648201526084016105d6565b6112bb838383611b60565b6001600160a01b038316600090815260208190526040902054818110156113335760405162461bcd60e51b815260206004820152602660248201527f45524332303a207472616e7366657220616d6f756e7420657863656564732062604482015265616c616e636560d01b60648201526084016105d6565b6001600160a01b0380851660009081526020819052604080822085850390559185168152908120805484929061136a908490612448565b92505081905550826001600160a01b0316846001600160a01b03167fddf252ad1be2c89b69c2b068fc378daa952ba7f163c4a11628f55a4df523b3ef846040516113b691815260200190565b60405180910390a3610e6e848484611bbe565b60007f000000000000000000000000000000000000000000000000000000000000000046141561141a57507f000000000000000000000000000000000000000000000000000000000000000061052e565b50604080517f00000000000000000000000000000000000000000000000000000000000000006020808301919091527f0000000000000000000000000000000000000000000000000000000000000000828401527f000000000000000000000000000000000000000000000000000000000000000060608301524660808301523060a0808401919091528351808403909101815260c0909201909252805191012061052e565b8154600090815b818110156115325760006114db8284611d42565b9050848682815481106114fe57634e487b7160e01b600052603260045260246000fd5b60009182526020909120015463ffffffff16111561151e5780925061152c565b611529816001612448565b91505b506114c7565b81156115845784611544600184612480565b8154811061156257634e487b7160e01b600052603260045260246000fd5b60009182526020909120015464010000000090046001600160e01b0316611587565b60005b6001600160e01b031695945050505050565b6115ac600954600160a01b900460ff1690565b6115ef5760405162461bcd60e51b815260206004820152601460248201527314185d5cd8589b194e881b9bdd081c185d5cd95960621b60448201526064016105d6565b6009805460ff60a01b191690557f5db9ee0a495bf2e6ff9c91a7834c1ba4fdd244a5e8aa4e537bd38aeae4b073aa335b6040516001600160a01b03909116815260200160405180910390a1565b600080600084116116885760405162461bcd60e51b815260206004820152601660248201527504552433230536e617073686f743a20696420697320360541b60448201526064016105d6565b611690611d5d565b8411156116df5760405162461bcd60e51b815260206004820152601d60248201527f4552433230536e617073686f743a206e6f6e6578697374656e7420696400000060448201526064016105d6565b60006116eb8486611d68565b845490915081141561170457600080925092505061173a565b600184600101828154811061172957634e487b7160e01b600052603260045260246000fd5b906000526020600020015492509250505b9250929050565b600061174c83610749565b9050600061176f846001600160a01b031660009081526020819052604090205490565b6001600160a01b038581166000818152600b602052604080822080546001600160a01b031916898616908117909155905194955093928616927f3134e8a2e6d97e929a7e54011ea5485d7d196dd5f0ba4d4ef95803e8e3fc257f9190a4610e6e828483611c05565b600980546001600160a01b038381166001600160a01b0319831681179093556040519116919082907f8be0079c531659141344cd1fd0a4f28419497f9722a3daafe3b4186f6b6457e090600090a35050565b61183c600954600160a01b900460ff1690565b1561187c5760405162461bcd60e51b815260206004820152601060248201526f14185d5cd8589b194e881c185d5cd95960821b60448201526064016105d6565b6009805460ff60a01b1916600160a01b1790557f62e78cea01bee320cd4e420270b5ea74000d11b0c9f74754ebdbfc544b05a25861161f3390565b60006118c7600880546001019055565b60006118d1611d5d565b90507f8030e83b04d87bef53480e26263266d6ca66863aa8506aca6f2559d18aa1cb678160405161190491815260200190565b60405180910390a1905090565b600061054261191e6113c9565b8360405161190160f01b6020820152602281018390526042810182905260009060620160405160208183030381529060405280519060200120905092915050565b600080600061197087878787611e47565b9150915061197d81611f34565b5095945050505050565b6001600160a01b0381166000908152600a602052604090208054600181018255905b50919050565b825460009081908015611a0857856119c8600183612480565b815481106119e657634e487b7160e01b600052603260045260246000fd5b60009182526020909120015464010000000090046001600160e01b0316611a0b565b60005b6001600160e01b03169250611a2483858763ffffffff16565b9150600081118015611a7057504386611a3e600184612480565b81548110611a5c57634e487b7160e01b600052603260045260246000fd5b60009182526020909120015463ffffffff16145b15611ade57611a7e82610f77565b86611a8a600184612480565b81548110611aa857634e487b7160e01b600052603260045260246000fd5b9060005260206000200160000160046101000a8154816001600160e01b0302191690836001600160e01b03160217905550611b57565b856040518060400160405280611af343610fe4565b63ffffffff168152602001611b0785610f77565b6001600160e01b039081169091528254600181018455600093845260209384902083519101805493909401519091166401000000000263ffffffff91821663ffffffff1990931692909217161790555b50935093915050565b611b73600954600160a01b900460ff1690565b15611bb35760405162461bcd60e51b815260206004820152601060248201526f14185d5cd8589b194e881c185d5cd95960821b60448201526064016105d6565b611096838383611049565b61109683838361109b565b6001600160a01b0381166000908152600560209081526040808320918390529091205461077491905b612137565b6106ee6006611bf260025490565b816001600160a01b0316836001600160a01b031614158015611c275750600081115b15611096576001600160a01b03831615611cb5576001600160a01b0383166000908152600c602052604081208190611c62906110b6856119af565b91509150846001600160a01b03167fdec2bacdd2f05b59de34da9b523dff8be42e5e38e818c82fdb0bae774387a7248383604051611caa929190918252602082015260400190565b60405180910390a250505b6001600160a01b03821615611096576001600160a01b0382166000908152600c602052604081208190611ceb90610f6b856119af565b91509150836001600160a01b03167fdec2bacdd2f05b59de34da9b523dff8be42e5e38e818c82fdb0bae774387a7248383604051611d33929190918252602082015260400190565b60405180910390a25050505050565b6000611d516002848418612460565b6106b590848416612448565b600061060160085490565b8154600090611d7957506000610542565b82546000905b80821015611de3576000611d938383611d42565b905084868281548110611db657634e487b7160e01b600052603260045260246000fd5b90600052602060002001541115611dcf57809150611ddd565b611dda816001612448565b92505b50611d7f565b600082118015611e2657508385611dfb600185612480565b81548110611e1957634e487b7160e01b600052603260045260246000fd5b9060005260206000200154145b15611e3f57611e36600183612480565b92505050610542565b509050610542565b6000807f7fffffffffffffffffffffffffffffff5d576e7357a4501ddfe92f46681b20a0831115611e7e5750600090506003611f2b565b8460ff16601b14158015611e9657508460ff16601c14155b15611ea75750600090506004611f2b565b6040805160008082526020820180845289905260ff881692820192909252606081018690526080810185905260019060a0016020604051602081039080840390855afa158015611efb573d6000803e3d6000fd5b5050604051601f1901519150506001600160a01b038116611f2457600060019250925050611f2b565b9150600090505b94509492505050565b6000816004811115611f5657634e487b7160e01b600052602160045260246000fd5b1415611f6157610774565b6001816004811115611f8357634e487b7160e01b600052602160045260246000fd5b1415611fd15760405162461bcd60e51b815260206004820152601860248201527f45434453413a20696e76616c6964207369676e6174757265000000000000000060448201526064016105d6565b6002816004811115611ff357634e487b7160e01b600052602160045260246000fd5b14156120415760405162461bcd60e51b815260206004820152601f60248201527f45434453413a20696e76616c6964207369676e6174757265206c656e6774680060448201526064016105d6565b600381600481111561206357634e487b7160e01b600052602160045260246000fd5b14156120bc5760405162461bcd60e51b815260206004820152602260248201527f45434453413a20696e76616c6964207369676e6174757265202773272076616c604482015261756560f01b60648201526084016105d6565b60048160048111156120de57634e487b7160e01b600052602160045260246000fd5b14156107745760405162461bcd60e51b815260206004820152602260248201527f45434453413a20696e76616c6964207369676e6174757265202776272076616c604482015261756560f01b60648201526084016105d6565b6000612141611d5d565b90508061214d84612181565b1015611096578254600180820185556000858152602080822090930193909355938401805494850181558252902090910155565b805460009061219257506000610765565b815482906121a290600190612480565b815481106121c057634e487b7160e01b600052603260045260246000fd5b90600052602060002001549050610765565b80356001600160a01b038116811461076557600080fd5b803560ff8116811461076557600080fd5b60006020828403121561220b578081fd5b6106b5826121d2565b60008060408385031215612226578081fd5b61222f836121d2565b915061223d602084016121d2565b90509250929050565b60008060006060848603121561225a578081fd5b612263846121d2565b9250612271602085016121d2565b9150604084013590509250925092565b600080600080600080600060e0888a03121561229b578283fd5b6122a4886121d2565b96506122b2602089016121d2565b955060408801359450606088013593506122ce608089016121e9565b925060a0880135915060c0880135905092959891949750929550565b600080604083850312156122fc578182fd5b612305836121d2565b946020939093013593505050565b60008060008060008060c0878903121561232b578182fd5b612334876121d2565b95506020870135945060408701359350612350606088016121e9565b92506080870135915060a087013590509295509295509295565b6000806040838503121561237c578182fd5b612385836121d2565b9150602083013563ffffffff8116811461239d578182fd5b809150509250929050565b6000602082840312156123b9578081fd5b5035919050565b6000602080835283518082850152825b818110156123ec578581018301518582016040015282016123d0565b818111156123fd5783604083870101525b50601f01601f1916929092016040019392505050565b6020808252818101527f4f776e61626c653a2063616c6c6572206973206e6f7420746865206f776e6572604082015260600190565b6000821982111561245b5761245b6124cc565b500190565b60008261247b57634e487b7160e01b81526012600452602481fd5b500490565b600082821015612492576124926124cc565b500390565b6002810460018216806124ab57607f821691505b602082108114156119a957634e487b7160e01b600052602260045260246000fd5b634e487b7160e01b600052601160045260246000fdfea2646970667358221220788a8086762b29a8846d56f57af6178b1dff3ee6868c4341074ae1898235fbd564736f6c63430008020033dec2bacdd2f05b59de34da9b523dff8be42e5e38e818c82fdb0bae774387a724",
  "immutableReferences": {
    "1846": [
      {
        "length": 32,
        "start": 2986
      }
    ],
    "2577": [
      {
        "length": 32,
        "start": 5110
      }
    ],
    "2579": [
      {
        "length": 32,
        "start": 5069
      }
    ],
    "2581": [
      {
        "length": 32,
        "start": 5195
      }
    ],
    "2583": [
      {
        "length": 32,
        "start": 5232
      }
    ],
    "2585": [
      {
        "length": 32,
        "start": 5153
      }
    ]
  },
  "source": "// SPDX-License-Identifier: MIT\npragma solidity ^0.8.2;\n\nimport \"@openzeppelin/contracts/token/ERC20/ERC20.sol\";\nimport \"@openzeppelin/contracts/token/ERC20/extensions/ERC20Snapshot.sol\";\nimport \"@openzeppelin/contracts/access/Ownable.sol\";\nimport \"@openzeppelin/contracts/security/Pausable.sol\";\nimport \"@openzeppelin/contracts/token/ERC20/extensions/draft-ERC20Permit.sol\";\nimport \"@openzeppelin/contracts/token/ERC20/extensions/ERC20Votes.sol\";\n\ncontract REALREALM is\n  ERC20,\n  ERC20Snapshot,\n  Ownable,\n  Pausable,\n  ERC20Permit,\n  ERC20Votes\n{\n  constructor() ERC20(\"REALREALM\", \"REAL\") ERC20Permit(\"REALREALM\") {\n    _mint(\n      0xfFC8562d79073Bb64F8ad9E626Bff5B97884b41e,\n      30000000 * 10**decimals()\n    ); // Seed Sale - 30.000.000 - 3%\n    _mint(\n      0x3e9BC83779b0c8eB9B0bCE9cf980Ce4630fcbb94,\n      120000000 * 10**decimals()\n    ); // Private Sale - 120.000.000\n    _mint(\n      0x508bf5CA461b1b7e3C55FF64d4D396EaEcA0489D,\n      12000000 * 10**decimals()\n    ); // Public Sale - 12.000.000\n    _mint(\n      0x47dA2d7674FdFa8e16ef0EE306c337f0F4548806,\n      250000000 * 10**decimals()\n    ); // Game Rewards - 250.000.000\n    _mint(\n      0x2d082504DF6d138Bdc669cc7914D0B16df863dd9,\n      93000000 * 10**decimals()\n    ); // Staking Rewards - 93.000.000\n    _mint(\n      0x76B7d23274B73801327F22C2D2BA79E316500750,\n      93000000 * 10**decimals()\n    ); // Marketing & Ecosystem - 93.000.000\n    _mint(\n      0x5A4010D01377A515F64633403F9cdaef91f8a631,\n      100000000 * 10**decimals()\n    ); // Liquidity - 100.000.000\n    _mint(\n      0x0D1Ba337c0f17322155EDDbc1c2f246d61698D40,\n      150000000 * 10**decimals()\n    ); // Team - 150.000.000\n    _mint(\n      0xFFEAd3439759FCC40738d21ae581a811a977a709,\n      50000000 * 10**decimals()\n    ); // Advisors & Partnership - 50.000.000\n  }\n\n  function snapshot() public onlyOwner {\n    _snapshot();\n  }\n\n  function pause() public onlyOwner {\n    _pause();\n  }\n\n  function unpause() public onlyOwner {\n    _unpause();\n  }\n\n  function _beforeTokenTransfer(\n    address from,\n    address to,\n    uint256 amount\n  ) internal override(ERC20, ERC20Snapshot) whenNotPaused {\n    super._beforeTokenTransfer(from, to, amount);\n  }\n\n  // The following functions are overrides required by Solidity.\n\n  function _afterTokenTransfer(\n    address from,\n    address to,\n    uint256 amount\n  ) internal override(ERC20, ERC20Votes) {\n    super._afterTokenTransfer(from, to, amount);\n  }\n\n  function _mint(address to, uint256 amount)\n    internal\n    override(ERC20, ERC20Votes)\n  {\n    super._mint(to, amount);\n  }\n\n  function _burn(address account, uint256 amount)\n    internal\n    override(ERC20, ERC20Votes)\n  {\n    super._burn(account, amount);\n  }\n}\n",
  "sourcePath": "/Users/imac/Project/RealRealm/realrealm-token/contracts/REALREALM-token.sol",
  "compiler": {
    "name": "solc",
    "version": "0.8.2+commit.661d1103.Emscripten.clang"
  },
  "schemaVersion": "3.4.3",
  "updatedAt": "2021-10-19T15:55:45.032Z",
  "networkType": "ethereum",
  "devdoc": {
    "kind": "dev",
    "methods": {
      "DOMAIN_SEPARATOR()": {
        "details": "See {IERC20Permit-DOMAIN_SEPARATOR}."
      },
      "allowance(address,address)": {
        "details": "See {IERC20-allowance}."
      },
      "approve(address,uint256)": {
        "details": "See {IERC20-approve}. Requirements: - `spender` cannot be the zero address."
      },
      "balanceOf(address)": {
        "details": "See {IERC20-balanceOf}."
      },
      "balanceOfAt(address,uint256)": {
        "details": "Retrieves the balance of `account` at the time `snapshotId` was created."
      },
      "checkpoints(address,uint32)": {
        "details": "Get the `pos`-th checkpoint for `account`."
      },
      "decimals()": {
        "details": "Returns the number of decimals used to get its user representation. For example, if `decimals` equals `2`, a balance of `505` tokens should be displayed to a user as `5.05` (`505 / 10 ** 2`). Tokens usually opt for a value of 18, imitating the relationship between Ether and Wei. This is the value {ERC20} uses, unless this function is overridden; NOTE: This information is only used for _display_ purposes: it in no way affects any of the arithmetic of the contract, including {IERC20-balanceOf} and {IERC20-transfer}."
      },
      "decreaseAllowance(address,uint256)": {
        "details": "Atomically decreases the allowance granted to `spender` by the caller. This is an alternative to {approve} that can be used as a mitigation for problems described in {IERC20-approve}. Emits an {Approval} event indicating the updated allowance. Requirements: - `spender` cannot be the zero address. - `spender` must have allowance for the caller of at least `subtractedValue`."
      },
      "delegate(address)": {
        "details": "Delegate votes from the sender to `delegatee`."
      },
      "delegateBySig(address,uint256,uint256,uint8,bytes32,bytes32)": {
        "details": "Delegates votes from signer to `delegatee`"
      },
      "delegates(address)": {
        "details": "Get the address `account` is currently delegating to."
      },
      "getPastTotalSupply(uint256)": {
        "details": "Retrieve the `totalSupply` at the end of `blockNumber`. Note, this value is the sum of all balances. It is but NOT the sum of all the delegated votes! Requirements: - `blockNumber` must have been already mined"
      },
      "getPastVotes(address,uint256)": {
        "details": "Retrieve the number of votes for `account` at the end of `blockNumber`. Requirements: - `blockNumber` must have been already mined"
      },
      "getVotes(address)": {
        "details": "Gets the current votes balance for `account`"
      },
      "increaseAllowance(address,uint256)": {
        "details": "Atomically increases the allowance granted to `spender` by the caller. This is an alternative to {approve} that can be used as a mitigation for problems described in {IERC20-approve}. Emits an {Approval} event indicating the updated allowance. Requirements: - `spender` cannot be the zero address."
      },
      "name()": {
        "details": "Returns the name of the token."
      },
      "nonces(address)": {
        "details": "See {IERC20Permit-nonces}."
      },
      "numCheckpoints(address)": {
        "details": "Get number of checkpoints for `account`."
      },
      "owner()": {
        "details": "Returns the address of the current owner."
      },
      "paused()": {
        "details": "Returns true if the contract is paused, and false otherwise."
      },
      "permit(address,address,uint256,uint256,uint8,bytes32,bytes32)": {
        "details": "See {IERC20Permit-permit}."
      },
      "renounceOwnership()": {
        "details": "Leaves the contract without owner. It will not be possible to call `onlyOwner` functions anymore. Can only be called by the current owner. NOTE: Renouncing ownership will leave the contract without an owner, thereby removing any functionality that is only available to the owner."
      },
      "symbol()": {
        "details": "Returns the symbol of the token, usually a shorter version of the name."
      },
      "totalSupply()": {
        "details": "See {IERC20-totalSupply}."
      },
      "totalSupplyAt(uint256)": {
        "details": "Retrieves the total supply at the time `snapshotId` was created."
      },
      "transfer(address,uint256)": {
        "details": "See {IERC20-transfer}. Requirements: - `recipient` cannot be the zero address. - the caller must have a balance of at least `amount`."
      },
      "transferFrom(address,address,uint256)": {
        "details": "See {IERC20-transferFrom}. Emits an {Approval} event indicating the updated allowance. This is not required by the EIP. See the note at the beginning of {ERC20}. Requirements: - `sender` and `recipient` cannot be the zero address. - `sender` must have a balance of at least `amount`. - the caller must have allowance for ``sender``'s tokens of at least `amount`."
      },
      "transferOwnership(address)": {
        "details": "Transfers ownership of the contract to a new account (`newOwner`). Can only be called by the current owner."
      }
    },
    "version": 1
  },
  "userdoc": {
    "kind": "user",
    "methods": {},
    "version": 1
  }
}