{
  "contractName": "REALREALM",
  "abi": [
    {
      "inputs": [],
      "stateMutability": "nonpayable",
      "type": "constructor"
    },
    {
      "anonymous": false,
      "inputs": [
        {
          "indexed": true,
          "internalType": "address",
          "name": "owner",
          "type": "address"
        },
        {
          "indexed": true,
          "internalType": "address",
          "name": "spender",
          "type": "address"
        },
        {
          "indexed": false,
          "internalType": "uint256",
          "name": "value",
          "type": "uint256"
        }
      ],
      "name": "Approval",
      "type": "event"
    },
    {
      "anonymous": false,
      "inputs": [
        {
          "indexed": true,
          "internalType": "address",
          "name": "delegator",
          "type": "address"
        },
        {
          "indexed": true,
          "internalType": "address",
          "name": "fromDelegate",
          "type": "address"
        },
        {
          "indexed": true,
          "internalType": "address",
          "name": "toDelegate",
          "type": "address"
        }
      ],
      "name": "DelegateChanged",
      "type": "event"
    },
    {
      "anonymous": false,
      "inputs": [
        {
          "indexed": true,
          "internalType": "address",
          "name": "delegate",
          "type": "address"
        },
        {
          "indexed": false,
          "internalType": "uint256",
          "name": "previousBalance",
          "type": "uint256"
        },
        {
          "indexed": false,
          "internalType": "uint256",
          "name": "newBalance",
          "type": "uint256"
        }
      ],
      "name": "DelegateVotesChanged",
      "type": "event"
    },
    {
      "anonymous": false,
      "inputs": [
        {
          "indexed": true,
          "internalType": "address",
          "name": "previousOwner",
          "type": "address"
        },
        {
          "indexed": true,
          "internalType": "address",
          "name": "newOwner",
          "type": "address"
        }
      ],
      "name": "OwnershipTransferred",
      "type": "event"
    },
    {
      "anonymous": false,
      "inputs": [
        {
          "indexed": false,
          "internalType": "address",
          "name": "account",
          "type": "address"
        }
      ],
      "name": "Paused",
      "type": "event"
    },
    {
      "anonymous": false,
      "inputs": [
        {
          "indexed": false,
          "internalType": "uint256",
          "name": "id",
          "type": "uint256"
        }
      ],
      "name": "Snapshot",
      "type": "event"
    },
    {
      "anonymous": false,
      "inputs": [
        {
          "indexed": true,
          "internalType": "address",
          "name": "from",
          "type": "address"
        },
        {
          "indexed": true,
          "internalType": "address",
          "name": "to",
          "type": "address"
        },
        {
          "indexed": false,
          "internalType": "uint256",
          "name": "value",
          "type": "uint256"
        }
      ],
      "name": "Transfer",
      "type": "event"
    },
    {
      "anonymous": false,
      "inputs": [
        {
          "indexed": false,
          "internalType": "address",
          "name": "account",
          "type": "address"
        }
      ],
      "name": "Unpaused",
      "type": "event"
    },
    {
      "inputs": [],
      "name": "DOMAIN_SEPARATOR",
      "outputs": [
        {
          "internalType": "bytes32",
          "name": "",
          "type": "bytes32"
        }
      ],
      "stateMutability": "view",
      "type": "function",
      "constant": true
    },
    {
      "inputs": [
        {
          "internalType": "address",
          "name": "owner",
          "type": "address"
        },
        {
          "internalType": "address",
          "name": "spender",
          "type": "address"
        }
      ],
      "name": "allowance",
      "outputs": [
        {
          "internalType": "uint256",
          "name": "",
          "type": "uint256"
        }
      ],
      "stateMutability": "view",
      "type": "function",
      "constant": true
    },
    {
      "inputs": [
        {
          "internalType": "address",
          "name": "spender",
          "type": "address"
        },
        {
          "internalType": "uint256",
          "name": "amount",
          "type": "uint256"
        }
      ],
      "name": "approve",
      "outputs": [
        {
          "internalType": "bool",
          "name": "",
          "type": "bool"
        }
      ],
      "stateMutability": "nonpayable",
      "type": "function"
    },
    {
      "inputs": [
        {
          "internalType": "address",
          "name": "account",
          "type": "address"
        }
      ],
      "name": "balanceOf",
      "outputs": [
        {
          "internalType": "uint256",
          "name": "",
          "type": "uint256"
        }
      ],
      "stateMutability": "view",
      "type": "function",
      "constant": true
    },
    {
      "inputs": [
        {
          "internalType": "address",
          "name": "account",
          "type": "address"
        },
        {
          "internalType": "uint256",
          "name": "snapshotId",
          "type": "uint256"
        }
      ],
      "name": "balanceOfAt",
      "outputs": [
        {
          "internalType": "uint256",
          "name": "",
          "type": "uint256"
        }
      ],
      "stateMutability": "view",
      "type": "function",
      "constant": true
    },
    {
      "inputs": [
        {
          "internalType": "address",
          "name": "account",
          "type": "address"
        },
        {
          "internalType": "uint32",
          "name": "pos",
          "type": "uint32"
        }
      ],
      "name": "checkpoints",
      "outputs": [
        {
          "components": [
            {
              "internalType": "uint32",
              "name": "fromBlock",
              "type": "uint32"
            },
            {
              "internalType": "uint224",
              "name": "votes",
              "type": "uint224"
            }
          ],
          "internalType": "struct ERC20Votes.Checkpoint",
          "name": "",
          "type": "tuple"
        }
      ],
      "stateMutability": "view",
      "type": "function",
      "constant": true
    },
    {
      "inputs": [],
      "name": "decimals",
      "outputs": [
        {
          "internalType": "uint8",
          "name": "",
          "type": "uint8"
        }
      ],
      "stateMutability": "view",
      "type": "function",
      "constant": true
    },
    {
      "inputs": [
        {
          "internalType": "address",
          "name": "spender",
          "type": "address"
        },
        {
          "internalType": "uint256",
          "name": "subtractedValue",
          "type": "uint256"
        }
      ],
      "name": "decreaseAllowance",
      "outputs": [
        {
          "internalType": "bool",
          "name": "",
          "type": "bool"
        }
      ],
      "stateMutability": "nonpayable",
      "type": "function"
    },
    {
      "inputs": [
        {
          "internalType": "address",
          "name": "delegatee",
          "type": "address"
        }
      ],
      "name": "delegate",
      "outputs": [],
      "stateMutability": "nonpayable",
      "type": "function"
    },
    {
      "inputs": [
        {
          "internalType": "address",
          "name": "delegatee",
          "type": "address"
        },
        {
          "internalType": "uint256",
          "name": "nonce",
          "type": "uint256"
        },
        {
          "internalType": "uint256",
          "name": "expiry",
          "type": "uint256"
        },
        {
          "internalType": "uint8",
          "name": "v",
          "type": "uint8"
        },
        {
          "internalType": "bytes32",
          "name": "r",
          "type": "bytes32"
        },
        {
          "internalType": "bytes32",
          "name": "s",
          "type": "bytes32"
        }
      ],
      "name": "delegateBySig",
      "outputs": [],
      "stateMutability": "nonpayable",
      "type": "function"
    },
    {
      "inputs": [
        {
          "internalType": "address",
          "name": "account",
          "type": "address"
        }
      ],
      "name": "delegates",
      "outputs": [
        {
          "internalType": "address",
          "name": "",
          "type": "address"
        }
      ],
      "stateMutability": "view",
      "type": "function",
      "constant": true
    },
    {
      "inputs": [
        {
          "internalType": "uint256",
          "name": "blockNumber",
          "type": "uint256"
        }
      ],
      "name": "getPastTotalSupply",
      "outputs": [
        {
          "internalType": "uint256",
          "name": "",
          "type": "uint256"
        }
      ],
      "stateMutability": "view",
      "type": "function",
      "constant": true
    },
    {
      "inputs": [
        {
          "internalType": "address",
          "name": "account",
          "type": "address"
        },
        {
          "internalType": "uint256",
          "name": "blockNumber",
          "type": "uint256"
        }
      ],
      "name": "getPastVotes",
      "outputs": [
        {
          "internalType": "uint256",
          "name": "",
          "type": "uint256"
        }
      ],
      "stateMutability": "view",
      "type": "function",
      "constant": true
    },
    {
      "inputs": [
        {
          "internalType": "address",
          "name": "account",
          "type": "address"
        }
      ],
      "name": "getVotes",
      "outputs": [
        {
          "internalType": "uint256",
          "name": "",
          "type": "uint256"
        }
      ],
      "stateMutability": "view",
      "type": "function",
      "constant": true
    },
    {
      "inputs": [
        {
          "internalType": "address",
          "name": "spender",
          "type": "address"
        },
        {
          "internalType": "uint256",
          "name": "addedValue",
          "type": "uint256"
        }
      ],
      "name": "increaseAllowance",
      "outputs": [
        {
          "internalType": "bool",
          "name": "",
          "type": "bool"
        }
      ],
      "stateMutability": "nonpayable",
      "type": "function"
    },
    {
      "inputs": [],
      "name": "name",
      "outputs": [
        {
          "internalType": "string",
          "name": "",
          "type": "string"
        }
      ],
      "stateMutability": "view",
      "type": "function",
      "constant": true
    },
    {
      "inputs": [
        {
          "internalType": "address",
          "name": "owner",
          "type": "address"
        }
      ],
      "name": "nonces",
      "outputs": [
        {
          "internalType": "uint256",
          "name": "",
          "type": "uint256"
        }
      ],
      "stateMutability": "view",
      "type": "function",
      "constant": true
    },
    {
      "inputs": [
        {
          "internalType": "address",
          "name": "account",
          "type": "address"
        }
      ],
      "name": "numCheckpoints",
      "outputs": [
        {
          "internalType": "uint32",
          "name": "",
          "type": "uint32"
        }
      ],
      "stateMutability": "view",
      "type": "function",
      "constant": true
    },
    {
      "inputs": [],
      "name": "owner",
      "outputs": [
        {
          "internalType": "address",
          "name": "",
          "type": "address"
        }
      ],
      "stateMutability": "view",
      "type": "function",
      "constant": true
    },
    {
      "inputs": [],
      "name": "paused",
      "outputs": [
        {
          "internalType": "bool",
          "name": "",
          "type": "bool"
        }
      ],
      "stateMutability": "view",
      "type": "function",
      "constant": true
    },
    {
      "inputs": [
        {
          "internalType": "address",
          "name": "owner",
          "type": "address"
        },
        {
          "internalType": "address",
          "name": "spender",
          "type": "address"
        },
        {
          "internalType": "uint256",
          "name": "value",
          "type": "uint256"
        },
        {
          "internalType": "uint256",
          "name": "deadline",
          "type": "uint256"
        },
        {
          "internalType": "uint8",
          "name": "v",
          "type": "uint8"
        },
        {
          "internalType": "bytes32",
          "name": "r",
          "type": "bytes32"
        },
        {
          "internalType": "bytes32",
          "name": "s",
          "type": "bytes32"
        }
      ],
      "name": "permit",
      "outputs": [],
      "stateMutability": "nonpayable",
      "type": "function"
    },
    {
      "inputs": [],
      "name": "renounceOwnership",
      "outputs": [],
      "stateMutability": "nonpayable",
      "type": "function"
    },
    {
      "inputs": [],
      "name": "symbol",
      "outputs": [
        {
          "internalType": "string",
          "name": "",
          "type": "string"
        }
      ],
      "stateMutability": "view",
      "type": "function",
      "constant": true
    },
    {
      "inputs": [],
      "name": "totalSupply",
      "outputs": [
        {
          "internalType": "uint256",
          "name": "",
          "type": "uint256"
        }
      ],
      "stateMutability": "view",
      "type": "function",
      "constant": true
    },
    {
      "inputs": [
        {
          "internalType": "uint256",
          "name": "snapshotId",
          "type": "uint256"
        }
      ],
      "name": "totalSupplyAt",
      "outputs": [
        {
          "internalType": "uint256",
          "name": "",
          "type": "uint256"
        }
      ],
      "stateMutability": "view",
      "type": "function",
      "constant": true
    },
    {
      "inputs": [
        {
          "internalType": "address",
          "name": "recipient",
          "type": "address"
        },
        {
          "internalType": "uint256",
          "name": "amount",
          "type": "uint256"
        }
      ],
      "name": "transfer",
      "outputs": [
        {
          "internalType": "bool",
          "name": "",
          "type": "bool"
        }
      ],
      "stateMutability": "nonpayable",
      "type": "function"
    },
    {
      "inputs": [
        {
          "internalType": "address",
          "name": "sender",
          "type": "address"
        },
        {
          "internalType": "address",
          "name": "recipient",
          "type": "address"
        },
        {
          "internalType": "uint256",
          "name": "amount",
          "type": "uint256"
        }
      ],
      "name": "transferFrom",
      "outputs": [
        {
          "internalType": "bool",
          "name": "",
          "type": "bool"
        }
      ],
      "stateMutability": "nonpayable",
      "type": "function"
    },
    {
      "inputs": [
        {
          "internalType": "address",
          "name": "newOwner",
          "type": "address"
        }
      ],
      "name": "transferOwnership",
      "outputs": [],
      "stateMutability": "nonpayable",
      "type": "function"
    },
    {
      "inputs": [],
      "name": "snapshot",
      "outputs": [],
      "stateMutability": "nonpayable",
      "type": "function"
    },
    {
      "inputs": [],
      "name": "pause",
      "outputs": [],
      "stateMutability": "nonpayable",
      "type": "function"
    },
    {
      "inputs": [],
      "name": "unpause",
      "outputs": [],
      "stateMutability": "nonpayable",
      "type": "function"
    },
    {
      "inputs": [
        {
          "internalType": "address",
          "name": "_token",
          "type": "address"
        }
      ],
      "name": "rescueStuckErc20",
      "outputs": [],
      "stateMutability": "nonpayable",
      "type": "function"
    }
  ],
  "bytecode": "0x6101406040527f6e71edae12b1b97f4d1f60370fef10105fa2faae0126114a169c64845d6126c9610120523480156200003757600080fd5b50604051806040016040528060098152602001685245414c5245414c4d60b81b81525080604051806040016040528060018152602001603160f81b815250604051806040016040528060098152602001685245414c5245414c4d60b81b815250604051806040016040528060048152602001631491505360e21b8152508160039080519060200190620000cc92919062000c70565b508051620000e290600490602084019062000c70565b505050620000ff620000f96200039060201b60201c565b62000394565b6009805460ff60a01b19169055815160208084019190912082519183019190912060c082905260e08190524660a0527f8b73c3c69bb8fe3d512ecc4cf759cc79239f7b179b0ffacaa9a75d522b39400f6200015c818484620003e6565b6080526101005250620001b0935073ffc8562d79073bb64f8ad9e626bff5b97884b41e92506200018d915050601290565b6200019a90600a62000d7e565b620001aa906301c9c38062000e69565b62000430565b620001e7733e9bc83779b0c8eb9b0bce9cf980ce4630fcbb94620001d76012600a62000d7e565b620001aa906307270e0062000e69565b6200021d73508bf5ca461b1b7e3c55ff64d4d396eaeca0489d6200020e6012600a62000d7e565b620001aa9062b71b0062000e69565b620002547347da2d7674fdfa8e16ef0ee306c337f0f4548806620002446012600a62000d7e565b620001aa90630ee6b28062000e69565b6200028b732d082504df6d138bdc669cc7914d0b16df863dd96200027b6012600a62000d7e565b620001aa9063058b114062000e69565b620002c27376b7d23274b73801327f22c2d2ba79e316500750620002b26012600a62000d7e565b620001aa906305a995c062000e69565b620002fb7376b7d23274b73801327f22c2d2ba79e31650075060125b620002eb90600a62000d7e565b620001aa906305f5e10062000e69565b6200031c735a4010d01377a515f64633403f9cdaef91f8a6316012620002de565b62000353730d1ba337c0f17322155eddbc1c2f246d61698d40620003436012600a62000d7e565b620001aa906308f0d18062000e69565b6200038a73ffead3439759fcc40738d21ae581a811a977a7096200037a6012600a62000d7e565b620001aa906302faf08062000e69565b62000ef8565b3390565b600980546001600160a01b038381166001600160a01b0319831681179093556040519116919082907f8be0079c531659141344cd1fd0a4f28419497f9722a3daafe3b4186f6b6457e090600090a35050565b6040805160208101859052908101839052606081018290524660808201523060a082015260009060c0016040516020818303038152906040528051906020012090505b9392505050565b6200044782826200044b60201b62000f4e1760201c565b5050565b6200046282826200050260201b62000fde1760201c565b6001600160e01b0362000476620005ff8216565b1115620004e35760405162461bcd60e51b815260206004820152603060248201527f4552433230566f7465733a20746f74616c20737570706c79207269736b73206f60448201526f766572666c6f77696e6720766f74657360801b60648201526084015b60405180910390fd5b620004fc600d620010d56200060560201b178362000613565b50505050565b6001600160a01b0382166200055a5760405162461bcd60e51b815260206004820152601f60248201527f45524332303a206d696e7420746f20746865207a65726f2061646472657373006044820152606401620004da565b6200056860008383620007f7565b80600260008282546200057c919062000d16565b90915550506001600160a01b03821660009081526020819052604081208054839290620005ab90849062000d16565b90915550506040518181526001600160a01b038316906000907fddf252ad1be2c89b69c2b068fc378daa952ba7f163c4a11628f55a4df523b3ef9060200160405180910390a362000447600083836200086a565b60025490565b600062000429828462000d16565b8254600090819080156200067157856200062f60018362000e8b565b815481106200064e57634e487b7160e01b600052603260045260246000fd5b60009182526020909120015464010000000090046001600160e01b031662000674565b60005b6001600160e01b031692506200068b83858760201c565b9150600081118015620006db57504386620006a860018462000e8b565b81548110620006c757634e487b7160e01b600052603260045260246000fd5b60009182526020909120015463ffffffff16145b156200075b57620006f7826200088260201b620010e11760201c565b866200070560018462000e8b565b815481106200072457634e487b7160e01b600052603260045260246000fd5b9060005260206000200160000160046101000a8154816001600160e01b0302191690836001600160e01b03160217905550620007ee565b8560405180604001604052806200077d43620008f560201b6200114e1760201c565b63ffffffff1681526020016200079e856200088260201b620010e11760201c565b6001600160e01b039081169091528254600181018455600093845260209384902083519101805493909401519091166401000000000263ffffffff91821663ffffffff1990931692909217161790555b50935093915050565b6200080b600954600160a01b900460ff1690565b156200084d5760405162461bcd60e51b815260206004820152601060248201526f14185d5cd8589b194e881c185d5cd95960821b6044820152606401620004da565b620008658383836200095c60201b620011b31760201c565b505050565b62000865838383620009ce60201b620012001760201c565b60006001600160e01b03821115620008ed5760405162461bcd60e51b815260206004820152602760248201527f53616665436173743a2076616c756520646f65736e27742066697420696e20326044820152663234206269747360c81b6064820152608401620004da565b50805b919050565b600063ffffffff821115620008ed5760405162461bcd60e51b815260206004820152602660248201527f53616665436173743a2076616c756520646f65736e27742066697420696e203360448201526532206269747360d01b6064820152608401620004da565b620009748383836200086560201b620009501760201c565b6001600160a01b0383166200099e576200098e8262000a1a565b6200099862000a4d565b62000865565b6001600160a01b038216620009b8576200098e8362000a1a565b620009c38362000a1a565b620008658262000a1a565b620009e68383836200086560201b620009501760201c565b6001600160a01b038381166000908152600b6020526040808220548584168352912054620008659291821691168362000a5f565b6001600160a01b0381166000908152600560209081526040808320918390529091205462000a4a91905b62000b9a565b50565b62000a5d600662000a4460025490565b565b816001600160a01b0316836001600160a01b03161415801562000a825750600081115b1562000865576001600160a01b0383161562000b0f576001600160a01b0383166000908152600c602090815260408220829162000acc919062000be9901b6200121b178562000613565b91509150846001600160a01b0316600080516020620035fd833981519152838360405162000b04929190918252602082015260400190565b60405180910390a250505b6001600160a01b0382161562000865576001600160a01b0382166000908152600c602090815260408220829162000b53919062000605901b620010d5178562000613565b91509150836001600160a01b0316600080516020620035fd833981519152838360405162000b8b929190918252602082015260400190565b60405180910390a25050505050565b600062000ba662000bf7565b90508062000bb48462000c15565b101562000865578254600180820185556000858152602080822090930193909355938401805494850181558252902090910155565b600062000429828462000e8b565b600062000c10600862000c6c60201b620012271760201c565b905090565b805460009062000c2857506000620008f0565b8154829062000c3a9060019062000e8b565b8154811062000c5957634e487b7160e01b600052603260045260246000fd5b90600052602060002001549050620008f0565b5490565b82805462000c7e9062000ea5565b90600052602060002090601f01602090048101928262000ca2576000855562000ced565b82601f1062000cbd57805160ff191683800117855562000ced565b8280016001018555821562000ced579182015b8281111562000ced57825182559160200191906001019062000cd0565b5062000cfb92915062000cff565b5090565b5b8082111562000cfb576000815560010162000d00565b6000821982111562000d2c5762000d2c62000ee2565b500190565b80825b600180861162000d45575062000d75565b81870482111562000d5a5762000d5a62000ee2565b8086161562000d6857918102915b9490941c93800262000d34565b94509492505050565b60006200042960001960ff85168460008262000d9d5750600162000429565b8162000dac5750600062000429565b816001811462000dc5576002811462000dd05762000e04565b600191505062000429565b60ff84111562000de45762000de462000ee2565b6001841b91508482111562000dfd5762000dfd62000ee2565b5062000429565b5060208310610133831016604e8410600b841016171562000e3c575081810a8381111562000e365762000e3662000ee2565b62000429565b62000e4b848484600162000d31565b80860482111562000e605762000e6062000ee2565b02949350505050565b600081600019048311821515161562000e865762000e8662000ee2565b500290565b60008282101562000ea05762000ea062000ee2565b500390565b60028104600182168062000eba57607f821691505b6020821081141562000edc57634e487b7160e01b600052602260045260246000fd5b50919050565b634e487b7160e01b600052601160045260246000fd5b60805160a05160c05160e05161010051610120516126b562000f486000396000610d1401526000611586015260006115d5015260006115b0015260006115320152600061155b01526126b56000f3fe608060405234801561001057600080fd5b50600436106101f05760003560e01c80637ecebe001161010f5780639ab24eb0116100a2578063d505accf11610071578063d505accf14610420578063dd62ed3e14610433578063f1127ed81461046c578063f2fde38b146104a9576101f0565b80639ab24eb0146103d4578063a457c2d7146103e7578063a9059cbb146103fa578063c3cda5201461040d576101f0565b80638e539e8c116100de5780638e539e8c1461039e57806395d89b41146103b15780639711715a146103b9578063981b24d0146103c1576101f0565b80637ecebe001461035f57806381ca7eba146103725780638456cb59146103855780638da5cb5b1461038d576101f0565b80633f4ba83a116101875780635c975abb116101565780635c975abb146102f35780636fcfff451461030657806370a082311461032e578063715018a614610357576101f0565b80633f4ba83a146102985780634ee2cd7e146102a2578063587cde1e146102b55780635c19a95c146102e0576101f0565b8063313ce567116101c3578063313ce5671461025b5780633644e5151461026a57806339509351146102725780633a46b1a814610285576101f0565b806306fdde03146101f5578063095ea7b31461021357806318160ddd1461023657806323b872dd14610248575b600080fd5b6101fd6104bc565b60405161020a919061255d565b60405180910390f35b61022661022136600461244f565b61054f565b604051901515815260200161020a565b6002545b60405190815260200161020a565b6102266102563660046123ab565b610566565b6040516012815260200161020a565b61023a610615565b61022661028036600461244f565b610624565b61023a61029336600461244f565b610660565b6102a06106da565b005b61023a6102b036600461244f565b61070e565b6102c86102c336600461235f565b610767565b6040516001600160a01b03909116815260200161020a565b6102a06102ee36600461235f565b610788565b610226600954600160a01b900460ff1690565b61031961031436600461235f565b610795565b60405163ffffffff909116815260200161020a565b61023a61033c36600461235f565b6001600160a01b031660009081526020819052604090205490565b6102a06107b7565b61023a61036d36600461235f565b6107eb565b6102a061038036600461235f565b610809565b6102a0610955565b6009546001600160a01b03166102c8565b61023a6103ac36600461252d565b610987565b6101fd6109e3565b6102a06109f2565b61023a6103cf36600461252d565b610a24565b61023a6103e236600461235f565b610a4f565b6102266103f536600461244f565b610ae4565b61022661040836600461244f565b610b7d565b6102a061041b366004612478565b610b8a565b6102a061042e3660046123e6565b610cc0565b61023a610441366004612379565b6001600160a01b03918216600090815260016020908152604080832093909416825291909152205490565b61047f61047a3660046124cf565b610e24565b60408051825163ffffffff1681526020928301516001600160e01b0316928101929092520161020a565b6102a06104b736600461235f565b610eb6565b6060600380546104cb90612634565b80601f01602080910402602001604051908101604052809291908181526020018280546104f790612634565b80156105445780601f1061051957610100808354040283529160200191610544565b820191906000526020600020905b81548152906001019060200180831161052757829003601f168201915b505050505090505b90565b600061055c33848461122b565b5060015b92915050565b600061057384848461134f565b6001600160a01b0384166000908152600160209081526040808320338452909152902054828110156105fd5760405162461bcd60e51b815260206004820152602860248201527f45524332303a207472616e7366657220616d6f756e74206578636565647320616044820152676c6c6f77616e636560c01b60648201526084015b60405180910390fd5b61060a853385840361122b565b506001949350505050565b600061061f61152e565b905090565b3360008181526001602090815260408083206001600160a01b0387168452909152812054909161055c91859061065b9086906125e5565b61122b565b60004382106106b15760405162461bcd60e51b815260206004820152601f60248201527f4552433230566f7465733a20626c6f636b206e6f7420796574206d696e65640060448201526064016105f4565b6001600160a01b0383166000908152600c602052604090206106d39083611625565b9392505050565b6009546001600160a01b031633146107045760405162461bcd60e51b81526004016105f4906125b0565b61070c6116fe565b565b6001600160a01b0382166000908152600560205260408120819081906107359085906117a1565b915091508161075c576001600160a01b03851660009081526020819052604090205461075e565b805b95945050505050565b6001600160a01b038082166000908152600b6020526040902054165b919050565b61079233826118a6565b50565b6001600160a01b0381166000908152600c60205260408120546105609061114e565b6009546001600160a01b031633146107e15760405162461bcd60e51b81526004016105f4906125b0565b61070c600061193c565b6001600160a01b0381166000908152600a6020526040812054610560565b6009546001600160a01b031633146108335760405162461bcd60e51b81526004016105f4906125b0565b6040516370a0823160e01b81523060048201526000906001600160a01b038316906370a082319060240160206040518083038186803b15801561087557600080fd5b505afa158015610889573d6000803e3d6000fd5b505050506040513d601f19601f820116820180604052508101906108ad9190612545565b9050816001600160a01b031663a9059cbb6108d06009546001600160a01b031690565b6040516001600160e01b031960e084901b1681526001600160a01b03909116600482015260248101849052604401602060405180830381600087803b15801561091857600080fd5b505af115801561092c573d6000803e3d6000fd5b505050506040513d601f19601f82011682018060405250810190610950919061250d565b505050565b6009546001600160a01b0316331461097f5760405162461bcd60e51b81526004016105f4906125b0565b61070c61198e565b60004382106109d85760405162461bcd60e51b815260206004820152601f60248201527f4552433230566f7465733a20626c6f636b206e6f7420796574206d696e65640060448201526064016105f4565b610560600d83611625565b6060600480546104cb90612634565b6009546001600160a01b03163314610a1c5760405162461bcd60e51b81526004016105f4906125b0565b610792611a1c565b6000806000610a348460066117a1565b9150915081610a4557600254610a47565b805b949350505050565b6001600160a01b0381166000908152600c60205260408120548015610ad1576001600160a01b0383166000908152600c60205260409020610a9160018361261d565b81548110610aaf57634e487b7160e01b600052603260045260246000fd5b60009182526020909120015464010000000090046001600160e01b0316610ad4565b60005b6001600160e01b03169392505050565b3360009081526001602090815260408083206001600160a01b038616845290915281205482811015610b665760405162461bcd60e51b815260206004820152602560248201527f45524332303a2064656372656173656420616c6c6f77616e63652062656c6f77604482015264207a65726f60d81b60648201526084016105f4565b610b73338585840361122b565b5060019392505050565b600061055c33848461134f565b83421115610bda5760405162461bcd60e51b815260206004820152601d60248201527f4552433230566f7465733a207369676e6174757265206578706972656400000060448201526064016105f4565b604080517fe48329057bfd03d55e49b547132e39cffd9c1820ad7b9d4c5307691425d15adf60208201526001600160a01b038816918101919091526060810186905260808101859052600090610c5490610c4c9060a00160405160208183030381529060405280519060200120611a76565b858585611ac4565b9050610c5f81611aec565b8614610cad5760405162461bcd60e51b815260206004820152601960248201527f4552433230566f7465733a20696e76616c6964206e6f6e63650000000000000060448201526064016105f4565b610cb781886118a6565b50505050505050565b83421115610d105760405162461bcd60e51b815260206004820152601d60248201527f45524332305065726d69743a206578706972656420646561646c696e6500000060448201526064016105f4565b60007f0000000000000000000000000000000000000000000000000000000000000000888888610d3f8c611aec565b6040805160208101969096526001600160a01b0394851690860152929091166060840152608083015260a082015260c0810186905260e0016040516020818303038152906040528051906020012090506000610d9a82611a76565b90506000610daa82878787611ac4565b9050896001600160a01b0316816001600160a01b031614610e0d5760405162461bcd60e51b815260206004820152601e60248201527f45524332305065726d69743a20696e76616c6964207369676e6174757265000060448201526064016105f4565b610e188a8a8a61122b565b50505050505050505050565b60408051808201909152600080825260208201526001600160a01b0383166000908152600c60205260409020805463ffffffff8416908110610e7657634e487b7160e01b600052603260045260246000fd5b60009182526020918290206040805180820190915291015463ffffffff8116825264010000000090046001600160e01b0316918101919091529392505050565b6009546001600160a01b03163314610ee05760405162461bcd60e51b81526004016105f4906125b0565b6001600160a01b038116610f455760405162461bcd60e51b815260206004820152602660248201527f4f776e61626c653a206e6577206f776e657220697320746865207a65726f206160448201526564647265737360d01b60648201526084016105f4565b6107928161193c565b610f588282610fde565b6002546001600160e01b031015610fca5760405162461bcd60e51b815260206004820152603060248201527f4552433230566f7465733a20746f74616c20737570706c79207269736b73206f60448201526f766572666c6f77696e6720766f74657360801b60648201526084016105f4565b610fd8600d6110d583611b14565b50505050565b6001600160a01b0382166110345760405162461bcd60e51b815260206004820152601f60248201527f45524332303a206d696e7420746f20746865207a65726f20616464726573730060448201526064016105f4565b61104060008383611cc5565b806002600082825461105291906125e5565b90915550506001600160a01b0382166000908152602081905260408120805483929061107f9084906125e5565b90915550506040518181526001600160a01b038316906000907fddf252ad1be2c89b69c2b068fc378daa952ba7f163c4a11628f55a4df523b3ef9060200160405180910390a36110d160008383611d23565b5050565b60006106d382846125e5565b60006001600160e01b0382111561114a5760405162461bcd60e51b815260206004820152602760248201527f53616665436173743a2076616c756520646f65736e27742066697420696e20326044820152663234206269747360c81b60648201526084016105f4565b5090565b600063ffffffff82111561114a5760405162461bcd60e51b815260206004820152602660248201527f53616665436173743a2076616c756520646f65736e27742066697420696e203360448201526532206269747360d01b60648201526084016105f4565b6001600160a01b0383166111d7576111ca82611d2e565b6111d2611d5c565b610950565b6001600160a01b0382166111ee576111ca83611d2e565b6111f783611d2e565b61095082611d2e565b61095061120c84610767565b61121584610767565b83611d6a565b60006106d3828461261d565b5490565b6001600160a01b03831661128d5760405162461bcd60e51b8152602060048201526024808201527f45524332303a20617070726f76652066726f6d20746865207a65726f206164646044820152637265737360e01b60648201526084016105f4565b6001600160a01b0382166112ee5760405162461bcd60e51b815260206004820152602260248201527f45524332303a20617070726f766520746f20746865207a65726f206164647265604482015261737360f01b60648201526084016105f4565b6001600160a01b0383811660008181526001602090815260408083209487168084529482529182902085905590518481527f8c5be1e5ebec7d5bd14f71427d1e84f3dd0314c0f7b2291e5b200ac8c7c3b925910160405180910390a3505050565b6001600160a01b0383166113b35760405162461bcd60e51b815260206004820152602560248201527f45524332303a207472616e736665722066726f6d20746865207a65726f206164604482015264647265737360d81b60648201526084016105f4565b6001600160a01b0382166114155760405162461bcd60e51b815260206004820152602360248201527f45524332303a207472616e7366657220746f20746865207a65726f206164647260448201526265737360e81b60648201526084016105f4565b611420838383611cc5565b6001600160a01b038316600090815260208190526040902054818110156114985760405162461bcd60e51b815260206004820152602660248201527f45524332303a207472616e7366657220616d6f756e7420657863656564732062604482015265616c616e636560d01b60648201526084016105f4565b6001600160a01b038085166000908152602081905260408082208585039055918516815290812080548492906114cf9084906125e5565b92505081905550826001600160a01b0316846001600160a01b03167fddf252ad1be2c89b69c2b068fc378daa952ba7f163c4a11628f55a4df523b3ef8460405161151b91815260200190565b60405180910390a3610fd8848484611d23565b60007f000000000000000000000000000000000000000000000000000000000000000046141561157f57507f000000000000000000000000000000000000000000000000000000000000000061054c565b50604080517f00000000000000000000000000000000000000000000000000000000000000006020808301919091527f0000000000000000000000000000000000000000000000000000000000000000828401527f000000000000000000000000000000000000000000000000000000000000000060608301524660808301523060a0808401919091528351808403909101815260c0909201909252805191012061054c565b8154600090815b818110156116975760006116408284611ea7565b90508486828154811061166357634e487b7160e01b600052603260045260246000fd5b60009182526020909120015463ffffffff16111561168357809250611691565b61168e8160016125e5565b91505b5061162c565b81156116e957846116a960018461261d565b815481106116c757634e487b7160e01b600052603260045260246000fd5b60009182526020909120015464010000000090046001600160e01b03166116ec565b60005b6001600160e01b031695945050505050565b611711600954600160a01b900460ff1690565b6117545760405162461bcd60e51b815260206004820152601460248201527314185d5cd8589b194e881b9bdd081c185d5cd95960621b60448201526064016105f4565b6009805460ff60a01b191690557f5db9ee0a495bf2e6ff9c91a7834c1ba4fdd244a5e8aa4e537bd38aeae4b073aa335b6040516001600160a01b03909116815260200160405180910390a1565b600080600084116117ed5760405162461bcd60e51b815260206004820152601660248201527504552433230536e617073686f743a20696420697320360541b60448201526064016105f4565b6117f5611ec2565b8411156118445760405162461bcd60e51b815260206004820152601d60248201527f4552433230536e617073686f743a206e6f6e6578697374656e7420696400000060448201526064016105f4565b60006118508486611ecd565b845490915081141561186957600080925092505061189f565b600184600101828154811061188e57634e487b7160e01b600052603260045260246000fd5b906000526020600020015492509250505b9250929050565b60006118b183610767565b905060006118d4846001600160a01b031660009081526020819052604090205490565b6001600160a01b038581166000818152600b602052604080822080546001600160a01b031916898616908117909155905194955093928616927f3134e8a2e6d97e929a7e54011ea5485d7d196dd5f0ba4d4ef95803e8e3fc257f9190a4610fd8828483611d6a565b600980546001600160a01b038381166001600160a01b0319831681179093556040519116919082907f8be0079c531659141344cd1fd0a4f28419497f9722a3daafe3b4186f6b6457e090600090a35050565b6119a1600954600160a01b900460ff1690565b156119e15760405162461bcd60e51b815260206004820152601060248201526f14185d5cd8589b194e881c185d5cd95960821b60448201526064016105f4565b6009805460ff60a01b1916600160a01b1790557f62e78cea01bee320cd4e420270b5ea74000d11b0c9f74754ebdbfc544b05a2586117843390565b6000611a2c600880546001019055565b6000611a36611ec2565b90507f8030e83b04d87bef53480e26263266d6ca66863aa8506aca6f2559d18aa1cb6781604051611a6991815260200190565b60405180910390a1905090565b6000610560611a8361152e565b8360405161190160f01b6020820152602281018390526042810182905260009060620160405160208183030381529060405280519060200120905092915050565b6000806000611ad587878787611fac565b91509150611ae281612099565b5095945050505050565b6001600160a01b0381166000908152600a602052604090208054600181018255905b50919050565b825460009081908015611b6d5785611b2d60018361261d565b81548110611b4b57634e487b7160e01b600052603260045260246000fd5b60009182526020909120015464010000000090046001600160e01b0316611b70565b60005b6001600160e01b03169250611b8983858763ffffffff16565b9150600081118015611bd557504386611ba360018461261d565b81548110611bc157634e487b7160e01b600052603260045260246000fd5b60009182526020909120015463ffffffff16145b15611c4357611be3826110e1565b86611bef60018461261d565b81548110611c0d57634e487b7160e01b600052603260045260246000fd5b9060005260206000200160000160046101000a8154816001600160e01b0302191690836001600160e01b03160217905550611cbc565b856040518060400160405280611c584361114e565b63ffffffff168152602001611c6c856110e1565b6001600160e01b039081169091528254600181018455600093845260209384902083519101805493909401519091166401000000000263ffffffff91821663ffffffff1990931692909217161790555b50935093915050565b611cd8600954600160a01b900460ff1690565b15611d185760405162461bcd60e51b815260206004820152601060248201526f14185d5cd8589b194e881c185d5cd95960821b60448201526064016105f4565b6109508383836111b3565b610950838383611200565b6001600160a01b0381166000908152600560209081526040808320918390529091205461079291905b61229c565b61070c6006611d5760025490565b816001600160a01b0316836001600160a01b031614158015611d8c5750600081115b15610950576001600160a01b03831615611e1a576001600160a01b0383166000908152600c602052604081208190611dc79061121b85611b14565b91509150846001600160a01b03167fdec2bacdd2f05b59de34da9b523dff8be42e5e38e818c82fdb0bae774387a7248383604051611e0f929190918252602082015260400190565b60405180910390a250505b6001600160a01b03821615610950576001600160a01b0382166000908152600c602052604081208190611e50906110d585611b14565b91509150836001600160a01b03167fdec2bacdd2f05b59de34da9b523dff8be42e5e38e818c82fdb0bae774387a7248383604051611e98929190918252602082015260400190565b60405180910390a25050505050565b6000611eb660028484186125fd565b6106d3908484166125e5565b600061061f60085490565b8154600090611ede57506000610560565b82546000905b80821015611f48576000611ef88383611ea7565b905084868281548110611f1b57634e487b7160e01b600052603260045260246000fd5b90600052602060002001541115611f3457809150611f42565b611f3f8160016125e5565b92505b50611ee4565b600082118015611f8b57508385611f6060018561261d565b81548110611f7e57634e487b7160e01b600052603260045260246000fd5b9060005260206000200154145b15611fa457611f9b60018361261d565b92505050610560565b509050610560565b6000807f7fffffffffffffffffffffffffffffff5d576e7357a4501ddfe92f46681b20a0831115611fe35750600090506003612090565b8460ff16601b14158015611ffb57508460ff16601c14155b1561200c5750600090506004612090565b6040805160008082526020820180845289905260ff881692820192909252606081018690526080810185905260019060a0016020604051602081039080840390855afa158015612060573d6000803e3d6000fd5b5050604051601f1901519150506001600160a01b03811661208957600060019250925050612090565b9150600090505b94509492505050565b60008160048111156120bb57634e487b7160e01b600052602160045260246000fd5b14156120c657610792565b60018160048111156120e857634e487b7160e01b600052602160045260246000fd5b14156121365760405162461bcd60e51b815260206004820152601860248201527f45434453413a20696e76616c6964207369676e6174757265000000000000000060448201526064016105f4565b600281600481111561215857634e487b7160e01b600052602160045260246000fd5b14156121a65760405162461bcd60e51b815260206004820152601f60248201527f45434453413a20696e76616c6964207369676e6174757265206c656e6774680060448201526064016105f4565b60038160048111156121c857634e487b7160e01b600052602160045260246000fd5b14156122215760405162461bcd60e51b815260206004820152602260248201527f45434453413a20696e76616c6964207369676e6174757265202773272076616c604482015261756560f01b60648201526084016105f4565b600481600481111561224357634e487b7160e01b600052602160045260246000fd5b14156107925760405162461bcd60e51b815260206004820152602260248201527f45434453413a20696e76616c6964207369676e6174757265202776272076616c604482015261756560f01b60648201526084016105f4565b60006122a6611ec2565b9050806122b2846122e6565b1015610950578254600180820185556000858152602080822090930193909355938401805494850181558252902090910155565b80546000906122f757506000610783565b815482906123079060019061261d565b8154811061232557634e487b7160e01b600052603260045260246000fd5b90600052602060002001549050610783565b80356001600160a01b038116811461078357600080fd5b803560ff8116811461078357600080fd5b600060208284031215612370578081fd5b6106d382612337565b6000806040838503121561238b578081fd5b61239483612337565b91506123a260208401612337565b90509250929050565b6000806000606084860312156123bf578081fd5b6123c884612337565b92506123d660208501612337565b9150604084013590509250925092565b600080600080600080600060e0888a031215612400578283fd5b61240988612337565b965061241760208901612337565b955060408801359450606088013593506124336080890161234e565b925060a0880135915060c0880135905092959891949750929550565b60008060408385031215612461578182fd5b61246a83612337565b946020939093013593505050565b60008060008060008060c08789031215612490578182fd5b61249987612337565b955060208701359450604087013593506124b56060880161234e565b92506080870135915060a087013590509295509295509295565b600080604083850312156124e1578182fd5b6124ea83612337565b9150602083013563ffffffff81168114612502578182fd5b809150509250929050565b60006020828403121561251e578081fd5b815180151581146106d3578182fd5b60006020828403121561253e578081fd5b5035919050565b600060208284031215612556578081fd5b5051919050565b6000602080835283518082850152825b818110156125895785810183015185820160400152820161256d565b8181111561259a5783604083870101525b50601f01601f1916929092016040019392505050565b6020808252818101527f4f776e61626c653a2063616c6c6572206973206e6f7420746865206f776e6572604082015260600190565b600082198211156125f8576125f8612669565b500190565b60008261261857634e487b7160e01b81526012600452602481fd5b500490565b60008282101561262f5761262f612669565b500390565b60028104600182168061264857607f821691505b60208210811415611b0e57634e487b7160e01b600052602260045260246000fd5b634e487b7160e01b600052601160045260246000fdfea26469706673582212203b8a7559cc54982554ad4ac9fc2a1cacf4d9c354df36f8a8ecb599cdb72f604664736f6c63430008020033dec2bacdd2f05b59de34da9b523dff8be42e5e38e818c82fdb0bae774387a724",
  "immutableReferences": {
    "1846": [
      {
        "length": 32,
        "start": 3348
      }
    ],
    "2577": [
      {
        "length": 32,
        "start": 5467
      }
    ],
    "2579": [
      {
        "length": 32,
        "start": 5426
      }
    ],
    "2581": [
      {
        "length": 32,
        "start": 5552
      }
    ],
    "2583": [
      {
        "length": 32,
        "start": 5589
      }
    ],
    "2585": [
      {
        "length": 32,
        "start": 5510
      }
    ]
  },
  "source": "// SPDX-License-Identifier: MIT\npragma solidity ^0.8.2;\n\nimport \"@openzeppelin/contracts/token/ERC20/ERC20.sol\";\nimport \"@openzeppelin/contracts/token/ERC20/extensions/ERC20Snapshot.sol\";\nimport \"@openzeppelin/contracts/access/Ownable.sol\";\nimport \"@openzeppelin/contracts/security/Pausable.sol\";\nimport \"@openzeppelin/contracts/token/ERC20/extensions/draft-ERC20Permit.sol\";\nimport \"@openzeppelin/contracts/token/ERC20/extensions/ERC20Votes.sol\";\n\ncontract REALREALM is\n  ERC20,\n  ERC20Snapshot,\n  Ownable,\n  Pausable,\n  ERC20Permit,\n  ERC20Votes\n{\n  constructor() ERC20(\"REALREALM\", \"REAL\") ERC20Permit(\"REALREALM\") {\n    _mint(\n      0xfFC8562d79073Bb64F8ad9E626Bff5B97884b41e,\n      30000000 * 10**decimals()\n    ); // Seed Sale - 30.000.000 - 3%\n    _mint(\n      0x3e9BC83779b0c8eB9B0bCE9cf980Ce4630fcbb94,\n      120000000 * 10**decimals()\n    ); // Private Sale - 120.000.000\n    _mint(\n      0x508bf5CA461b1b7e3C55FF64d4D396EaEcA0489D,\n      12000000 * 10**decimals()\n    ); // Public Sale - 12.000.000\n    _mint(\n      0x47dA2d7674FdFa8e16ef0EE306c337f0F4548806,\n      250000000 * 10**decimals()\n    ); // Game Rewards - 250.000.000\n    _mint(\n      0x2d082504DF6d138Bdc669cc7914D0B16df863dd9,\n      93000000 * 10**decimals()\n    ); // Staking Rewards - 93.000.000\n    _mint(\n      0x76B7d23274B73801327F22C2D2BA79E316500750,\n      95000000 * 10**decimals()\n    ); // Marketing & Ecosystem - 95.000.000\n    _mint(\n      0x76B7d23274B73801327F22C2D2BA79E316500750,\n      100000000 * 10**decimals()\n    ); // Ecosystem - 100.000.000\n    _mint(\n      0x5A4010D01377A515F64633403F9cdaef91f8a631,\n      100000000 * 10**decimals()\n    ); // Liquidity - 100.000.000\n    _mint(\n      0x0D1Ba337c0f17322155EDDbc1c2f246d61698D40,\n      150000000 * 10**decimals()\n    ); // Team - 150.000.000\n    _mint(\n      0xFFEAd3439759FCC40738d21ae581a811a977a709,\n      50000000 * 10**decimals()\n    ); // Advisors & Partnership - 50.000.000\n  }\n\n  function snapshot() public onlyOwner {\n    _snapshot();\n  }\n\n  function pause() public onlyOwner {\n    _pause();\n  }\n\n  function unpause() public onlyOwner {\n    _unpause();\n  }\n\n  function _beforeTokenTransfer(\n    address from,\n    address to,\n    uint256 amount\n  ) internal override(ERC20, ERC20Snapshot) whenNotPaused {\n    super._beforeTokenTransfer(from, to, amount);\n  }\n\n  // The following functions are overrides required by Solidity.\n\n  function _afterTokenTransfer(\n    address from,\n    address to,\n    uint256 amount\n  ) internal override(ERC20, ERC20Votes) {\n    super._afterTokenTransfer(from, to, amount);\n  }\n\n  function _mint(address to, uint256 amount)\n    internal\n    override(ERC20, ERC20Votes)\n  {\n    super._mint(to, amount);\n  }\n\n  function _burn(address account, uint256 amount)\n    internal\n    override(ERC20, ERC20Votes)\n  {\n    super._burn(account, amount);\n  }\n\n  /* ========== EMERGENCY ========== */\n  /*\n    Users make mistake by transfering usdt/usdt ... to contract address. \n    This function allows contract owner to withdraw those tokens and send back to users.\n    */\n  function rescueStuckErc20(address _token) external onlyOwner {\n    uint256 _amount = ERC20(_token).balanceOf(address(this));\n    ERC20(_token).transfer(owner(), _amount);\n  }\n}\n",
  "sourcePath": "/Users/imac/Project/RealRealm/realrealm-token/contracts/REALREALM-token.sol",
  "compiler": {
    "name": "solc",
    "version": "0.8.2+commit.661d1103.Emscripten.clang"
  },
  "schemaVersion": "3.4.3",
  "updatedAt": "2021-10-19T16:54:12.012Z",
  "networkType": "ethereum",
  "devdoc": {
    "kind": "dev",
    "methods": {
      "DOMAIN_SEPARATOR()": {
        "details": "See {IERC20Permit-DOMAIN_SEPARATOR}."
      },
      "allowance(address,address)": {
        "details": "See {IERC20-allowance}."
      },
      "approve(address,uint256)": {
        "details": "See {IERC20-approve}. Requirements: - `spender` cannot be the zero address."
      },
      "balanceOf(address)": {
        "details": "See {IERC20-balanceOf}."
      },
      "balanceOfAt(address,uint256)": {
        "details": "Retrieves the balance of `account` at the time `snapshotId` was created."
      },
      "checkpoints(address,uint32)": {
        "details": "Get the `pos`-th checkpoint for `account`."
      },
      "decimals()": {
        "details": "Returns the number of decimals used to get its user representation. For example, if `decimals` equals `2`, a balance of `505` tokens should be displayed to a user as `5.05` (`505 / 10 ** 2`). Tokens usually opt for a value of 18, imitating the relationship between Ether and Wei. This is the value {ERC20} uses, unless this function is overridden; NOTE: This information is only used for _display_ purposes: it in no way affects any of the arithmetic of the contract, including {IERC20-balanceOf} and {IERC20-transfer}."
      },
      "decreaseAllowance(address,uint256)": {
        "details": "Atomically decreases the allowance granted to `spender` by the caller. This is an alternative to {approve} that can be used as a mitigation for problems described in {IERC20-approve}. Emits an {Approval} event indicating the updated allowance. Requirements: - `spender` cannot be the zero address. - `spender` must have allowance for the caller of at least `subtractedValue`."
      },
      "delegate(address)": {
        "details": "Delegate votes from the sender to `delegatee`."
      },
      "delegateBySig(address,uint256,uint256,uint8,bytes32,bytes32)": {
        "details": "Delegates votes from signer to `delegatee`"
      },
      "delegates(address)": {
        "details": "Get the address `account` is currently delegating to."
      },
      "getPastTotalSupply(uint256)": {
        "details": "Retrieve the `totalSupply` at the end of `blockNumber`. Note, this value is the sum of all balances. It is but NOT the sum of all the delegated votes! Requirements: - `blockNumber` must have been already mined"
      },
      "getPastVotes(address,uint256)": {
        "details": "Retrieve the number of votes for `account` at the end of `blockNumber`. Requirements: - `blockNumber` must have been already mined"
      },
      "getVotes(address)": {
        "details": "Gets the current votes balance for `account`"
      },
      "increaseAllowance(address,uint256)": {
        "details": "Atomically increases the allowance granted to `spender` by the caller. This is an alternative to {approve} that can be used as a mitigation for problems described in {IERC20-approve}. Emits an {Approval} event indicating the updated allowance. Requirements: - `spender` cannot be the zero address."
      },
      "name()": {
        "details": "Returns the name of the token."
      },
      "nonces(address)": {
        "details": "See {IERC20Permit-nonces}."
      },
      "numCheckpoints(address)": {
        "details": "Get number of checkpoints for `account`."
      },
      "owner()": {
        "details": "Returns the address of the current owner."
      },
      "paused()": {
        "details": "Returns true if the contract is paused, and false otherwise."
      },
      "permit(address,address,uint256,uint256,uint8,bytes32,bytes32)": {
        "details": "See {IERC20Permit-permit}."
      },
      "renounceOwnership()": {
        "details": "Leaves the contract without owner. It will not be possible to call `onlyOwner` functions anymore. Can only be called by the current owner. NOTE: Renouncing ownership will leave the contract without an owner, thereby removing any functionality that is only available to the owner."
      },
      "symbol()": {
        "details": "Returns the symbol of the token, usually a shorter version of the name."
      },
      "totalSupply()": {
        "details": "See {IERC20-totalSupply}."
      },
      "totalSupplyAt(uint256)": {
        "details": "Retrieves the total supply at the time `snapshotId` was created."
      },
      "transfer(address,uint256)": {
        "details": "See {IERC20-transfer}. Requirements: - `recipient` cannot be the zero address. - the caller must have a balance of at least `amount`."
      },
      "transferFrom(address,address,uint256)": {
        "details": "See {IERC20-transferFrom}. Emits an {Approval} event indicating the updated allowance. This is not required by the EIP. See the note at the beginning of {ERC20}. Requirements: - `sender` and `recipient` cannot be the zero address. - `sender` must have a balance of at least `amount`. - the caller must have allowance for ``sender``'s tokens of at least `amount`."
      },
      "transferOwnership(address)": {
        "details": "Transfers ownership of the contract to a new account (`newOwner`). Can only be called by the current owner."
      }
    },
    "version": 1
  },
  "userdoc": {
    "kind": "user",
    "methods": {},
    "version": 1
  }
}